:020000040800F2
:10800000000001205D600408DD600408C13302083F
:1080100025340208DD600408DD600408000000006B
:10802000000000000000000000000000DD60040807
:10803000DD60040800000000DD600408ED2B02088C
:10804000DD600408DD600408DD600408DD6004080C
:10805000DD600408DD600408DD600408DD600408FC
:10806000DD600408DD600408DD600408D5F4030861
:10807000C5F40308B5F40308A5F4030891F4030854
:108080007DF4030869F40308DD600408DD6004087A
:10809000DD600408DD600408DD600408DD600408BC
:1080A00001DA030889DA0308F1D90308B1DA030811
:1080B00079DA030869DA030859DA0308DD6004088D
:1080C000DD600408DD600408DD600408DD6004088C
:1080D000DD60040899D503088DD5030881D5030810
:1080E000DD600408DD600408DD600408E1D90308F0
:1080F00011DA0308DD60040839DA030855F40308CF
:10810000DD600408DD60040849DA0308DD60040866
:1081100075D5030869D50308DD600408DD6004082F
:1081200041F403082DF4030819F4030805F40308C7
:10813000F1F3030800000000000000000000000050
:10814000000000000000000000000000DD600408E6
:10815000DDF30308C9F30308B5F30308DD60040881
:10816000DD600408DD600408DD600408DD600408EB
:10817000DD600408DD60040800000000000000006D
:10818000DD600408DD600408DD600408DD600408CB
:10819000DD600408DD60040800000000DD60040804
:1081A000000000000000000000000000DD60040886
:1081B000DD600408DD60040800000000000000002D
:1081C00000000000000000000000000000000000AF
:1081D000000000000000000000000000DD60040856
:1081E00030B4034600F16005064C0C3307CC43F86D
:1081F0000C0C43F8081C43F8042CAB42F4D130BCFF
:10820000704700BF107D040870B503460A4E9624DF
:1082100000F5BA757C22184631463EF091FA0346C5
:10822000012244807C33A0F84C4080F82620AB42E9
:1082300080F86020EED170BD1C7D040838B50023A5
:1082400040F2DC54322140F201420480051D1C46FC
:108250004180C2818381E1B20134082019F07CFCA5
:10826000082C05F8010BF6D138BD00BF144B30B413
:108270001B78012B19D040F22E414FF4F0720123EC
:108280004182028083700F4B40F2262500240E4964
:1082900043F2277243610E2305824471C0F8071030
:1082A000C0F80B20037630BC70474FF47A744FF45B
:1082B0007A5104220371448201808270E3E700BF97
:1082C00098110120D007E803361028262C4B1B6894
:1082D000184483799BB107EE903A20EEA07A9FED87
:1082E000296AF7EE006AF8EEE77A27EE207A67EE61
:1082F000867AD7EE877A77EEA67A20EE270AC378B9
:10830000B0EE007ADFED1F6A07EE903AF8EEE77AFA
:1083100067EEA67AF4EEC77AF1EE10FA05DD37EED5
:10832000C77ADFED196AE7EE267A9FED187A437A6D
:1083300020EE070A20EE270A03B3DFED126A07EEEC
:10834000903A9FED137AF8EEE77A60EEA60A67EEB0
:10835000A00AF4EEC70AF1EE10FA04DDDFED0D7AA3
:1083600020EE270A7047F5EEC00AF1EE10FA05D4A8
:10837000F7EE007A77EEE00A80EE200A704700BF41
:10838000143A01200AD7233CD7A368410000484390
:10839000A4707D3F0000C842174BBFEE007AF7EE95
:1083A000006A9FED165A1B68F2EE044AA0EE007AAE
:1083B000184460EE850A20EE240A437AF0EE664AFD
:1083C00006EE103AC37827EE057A07EE903A8379E5
:1083D000B8EE466A05EE903AF8EEE77AE6EE204A05
:1083E000F8EEE55A67EE807AE5EE876A24EEA70A92
:1083F00020EE260A704700BF143A01200AD7233C1A
:108400002DE9F04F3B4F81463B4A8B463B68D804F1
:108410002DED068B92ED038A8FB07DD5DFF8F480C9
:10842000364C98F80030658AD907354E4FF0150163
:10843000344858BFA6F8045133F00EFE002800F06F
:108440008884A28AB2F57A7348BFA2F2E733C3F3F5
:108450004F03E81A2B4480B29AB207EE900AA0F5B7
:108460007A73C2F5FA61284CF8EEE77A07EE103A13
:1084700006EE901A94F90050B8EEC77A234BF4EE4A
:10848000C87AF8EEE66AF1EE10FA80F26F84197895
:10849000002940F06B8407EE902AF8EEE77AF4EEBC
:1084A000C87AF1EE10FA01F23285194A012D94EDE5
:1084B000077A92ED006A84ED017A76EE475A84EDF0
:1084C000036A84ED057AC4ED045A01F07C850A46FE
:1084D000C6F8189178EE677A0121BCEEC88AB0EE32
:1084E000667A2170C4ED067A18EE100AA6F8040127
:1084F00000F062BCD0560120F435012078560120EE
:1085000098110120444401201C0000206635012000
:108510006021002067350120E84C0122DFEDE87A78
:10852000E84B38EE678AD4ED0B7AE749F8EEE77A44
:1085300093ED006AD1ED006A94ED0C7A76EE665AFE
:10854000DFF8B48377EE887AE04BC4ED016AC4EDBE
:10855000056AC4ED045A84ED036A227087EE878AA7
:10856000DFF898A39FEDDA7A1B789AF80020F7EEEF
:10857000007A88FE678A88FE078A84ED068A002BC7
:1085800040F02A84D349D44B0978D3F800C001299C
:10859000D24D06D19CF8660005F18003012808BF82
:1085A0001D46BCF82830CE485E4207EE103A90EDEA
:1085B000046A07EE906AB8EE477AF8EEE77AB4EE0E
:1085C000E76AF1EE10FA00F1C18386FE476AD0ED4A
:1085D000096ADFEDC45AF4EEE67A26EE256AF1EE7A
:1085E00010FA01DCC7FE667A9FEDBE7A94F838E097
:1085F000BCF82A3067EE877ABEF1000F40F0FD83A9
:108600005E4206EE903A07EE106AF8EE666AB8EE41
:10861000C77AD0ED0E5AF4EEC75AF1EE10FA01D433
:1086200085FEE67AB04BDFEDAF6A5B7827EE267AFF
:108630000BB9B1EE477ABBF1000F40F08085F7EE41
:10864000005AAA4B1B68187C28B15B7C632B40F254
:10865000378484ED068A012904D0A54B1B78002BB2
:1086600001F02A81012941F0B3869FED998A8B465A
:1086700084ED068A002A01F04281D5ED026AD5ED2B
:10868000014A67EEA66A95ED035A9FED919AE6EED0
:10869000246AE7EE056A65EEA66AF4EEC96AF1EEB1
:1086A00010FA00F3AF83C6FEC98A012ACDED066A2F
:1086B00000F0B580D5ED066AD5ED054A67EEA66AED
:1086C00095ED075AE6EE246AE7EE056A65EEA66ABE
:1086D000B4EEE69AF1EE10FA00F19983C8FEE68A4C
:1086E000022ACDED076A00F09A80D5ED0A6AD5ED31
:1086F000094A67EEA66A95ED0B5AE6EE246AE7EEA4
:10870000056A65EEA66AB4EEE69AF1EE10FA00F19B
:108710003D85C8FEE68A032ACDED086A7FD0D5EDF7
:108720000E6AD5ED0D4A67EEA66A95ED0F5AE6EE94
:10873000246AE7EE056A65EEA66AB4EEE69AF1EE03
:1087400010FA01F1B580C8FEE68A042ACDED096A67
:1087500065D0D5ED126AD5ED114A67EEA66A95EDA2
:10876000135AE6EE246AE7EE056A65EEA66AB4EEF1
:10877000E69AF1EE10FA01F1AE80C8FEE68A052A0B
:10878000CDED0A6A4BD0D5ED166AD5ED154A67EEE8
:10879000A66A95ED175AE6EE246AE7EE056A65EEDD
:1087A000A66AB4EEE69AF1EE10FA01F19C80C8FEDA
:1087B000E68A062ACDED0B6A31D0D5ED1A6AD5EDE1
:1087C000194A67EEA66A95ED1B5AE6EE246AE7EEB3
:1087D000056A65EEA66AB4EEE69AF1EE10FA01F1CA
:1087E0008A80C8FEE68A072ACDED0C6A17D0D5ED3F
:1087F0001E6A95ED1D5A67EEA67AD5ED1F6AE6EE64
:10880000057AE7EE267A65EEA75AF4EEC95AF1EE3C
:1088100010FA01F30D82C8FEE58ACDED0D5A79EE0E
:10882000689A94F83C306BB9D4ED107AD4ED116AA3
:1088300038EE677AE6EE877A38EE677AC4ED107A1A
:1088400084ED127A2B4E41F28731D6F85831A9EBDC
:1088500003038B4200F3E083D4ED305AF5EE405A27
:10886000F1EE10FA07D0F7EE007A38EE677AE5EE0F
:10887000877A28EE278A94ED317ADFED156A84ED48
:10888000068AB4EEE67AF1EE10FA39DDD6ED577AC3
:10889000B7EE006AD6ED584A38EE675AE4EE857AAC
:1088A00038EE675AC6ED577AA7EE058A88FE468AE3
:1088B00088FE268A84ED068A22E000BF1C00002084
:1088C00000007A44602100203C2100206635012010
:1088D00000000000C4370120843501209C110120D4
:1088E000584F00206F12833A0C460120143A0120A1
:1088F000D836012098110120673501204C45002011
:10890000DC4B1B8813F4006340F04583B7EE006A2C
:1089100094ED327AD84977EE087AC4ED349AF4EEC1
:10892000C69AC4ED067AF1EE10FAC1ED007A40F372
:108930000D83FAB3C6EE296A9DED066A012A26EE7A
:10894000266A8DED066A35D09DED076A022A26EE6D
:10895000266A8DED076A2DD09DED086A032A26EE62
:10896000266A8DED086A25D09DED096A042A26EE57
:10897000266A8DED096A1DD09DED0A6A052A26EE4C
:10898000266A8DED0A6A15D09DED0B6A062A26EE41
:10899000266A8DED0B6A0DD09DED0C6A072A26EE36
:1089A000266A8DED0C6A05D09DED0D6A66EE266A8D
:1089B000CDED0D6ABBF1000F40F039829FEDAF8A1B
:1089C000D4ED356AF5EE406AF1EE10FA40F03D82E2
:1089D000396898F80000CE0600F0010002D50028A2
:1089E00040F08082002A00F0AC81F5EE405A94ED10
:1089F000036AD4ED015AD4ED0D6ABDEEC66AA04BF0
:108A0000F1EE10FA94F90010BDEEE54AFDEEE66ACB
:108A100094ED395A07EE101AD9789A4B14EE106A71
:108A200016EE107AB8EEC77A93F800E065EE054AC4
:108A300016EE903A14BF4FF0010C4FF0000C94ED7D
:108A4000384A94ED046AD4ED056A002940F0B885EF
:108A5000D5ED005ADDED063A67EEA55AE7EE235A4A
:108A6000F5EE405AF1EE10FA0ADDBCF1000F07D026
:108A7000F0EE643AE4EE253AF1EEE35A75EEC55AAB
:108A8000F0EE663AE6EE253AFDEEE35A15EE903A40
:108A90009E4240F30F8205EE906AF8EEE55A7A495D
:108AA000012AC1ED005A00F04A81D5ED045ADDEDEE
:108AB000073A67EEA55AE7EE235AF5EE405AF1EE73
:108AC00010FA0ADDBCF1000F07D0F0EE643AE4EED4
:108AD000253AF1EEE35A75EEC55AF0EE663AE6EE47
:108AE000253AFDEEE35A15EE903A9E4200F3EF86EA
:108AF000BB42A8BF3B4605EE903AF8EEE55A022A83
:108B0000C1ED015A00F01B81D5ED085ADDED083AA0
:108B100067EEA55AE7EE235AF5EE405AF1EE10FA49
:108B20000ADDBCF1000F07D0F0EE643AE4EE253A1E
:108B3000F1EEE35A75EEC55AF0EE663AE6EE253AE6
:108B4000FDEEE35A15EE903A9E4200F3C886BB4212
:108B5000A8BF3B4605EE903AF8EEE55A032AC1ED70
:108B6000025A00F0EC80D5ED0C5ADDED093A67EEC3
:108B7000A55AE7EE235AF5EE405AF1EE10FA0ADD57
:108B8000BCF1000F07D0F0EE643AE4EE253AF1EEC6
:108B9000E35A75EEC55AF0EE663AE6EE253AFDEE7A
:108BA000E35A15EE903A9E4200F3A186BB42A8BF5D
:108BB0003B4605EE903AF8EEE55A042AC1ED035A19
:108BC00000F0BD80D5ED105ADDED0A3A67EEA55AEA
:108BD000E7EE235AF5EE405AF1EE10FA0ADDBCF149
:108BE000000F07D0F0EE643AE4EE253AF1EEE35AD6
:108BF00075EEC55AF0EE663AE6EE253AFDEEE35A1A
:108C000015EE903A9E4200F38286BB42A8BF3B46D7
:108C100005EE903AF8EEE55A052AC1ED045A00F047
:108C20008E80D5ED145ADDED0B3A67EEA55AE7EECE
:108C3000235AF5EE405AF1EE10FA0ADDBCF1000FAE
:108C400007D0F0EE643AE4EE253AF1EEE35A75EE21
:108C5000C55AF0EE663AE6EE253AFDEEE35A15EE19
:108C6000903A9E4200F3EC87BB42A8BF3B4605EE1C
:108C7000903A0BE05C580120B02F0020000000006B
:108C8000A83501206857012040210020F8EEE55A60
:108C9000062AC1ED055A52D0D5ED185ADDED0C3A31
:108CA00067EEA55AE7EE235AF5EE405AF1EE10FAB8
:108CB0000ADDBCF1000F07D0F0EE643AE4EE253A8D
:108CC000F1EEE35A75EEC55AF0EE663AE6EE253A55
:108CD000FDEEE35A15EE903A9E4201F34281BB420B
:108CE000A8BF3B4605EE903AF8EEE55A072AC1EDDB
:108CF000065A24D0D5ED1C5ADDED0D3A67EEA57A63
:108D0000E7EE237AF5EE407AF1EE10FA08DDBCF1D9
:108D1000000F05D0E4EE274AF1EEE47A77EEC57A4B
:108D2000E6EE276AFDEEE67A17EE903A9E4241F3B0
:108D30001C8107EE906AF8EEE77AC1ED077A002809
:108D400051D00FB0BDEC068BBDE8F08FB0EE676A76
:108D50003DE496F81431002B7FF473ABB6F80E3176
:108D6000E81A2B4480B29AB2FFF777BB9B499C4A22
:108D7000D1ED006A94ED026A1278C4ED016A84EDC7
:108D8000036A002A46D176EEC65A0135F0EE466AED
:108D9000C4ED045AC4ED056A44D00022C6F8189107
:108DA00077EEC87AFF21BCEEC88A2170C4ED067A3E
:108DB00018EE101AA6F804118A498A423FF6CEAB83
:108DC00000228949D4ED067A4A6022628A61626291
:108DD000CA62A262FFF7C2BB98F80030DF0700F159
:108DE000FB81002AADD09200804981480FB0BDECD4
:108DF000068BBDE8F04F3DF0A3BCDFED7E6A9FED32
:108E00007E7A06E4F0EE498AB0EE669A4DE4B0EE62
:108E1000669A65E476EE665A0135C4ED056AC4EDDE
:108E2000045ABAD1D6F81821A9EB0202B8E7D4ED5A
:108E3000356AF6EE007A9FED718AF5EE406AC4ED70
:108E4000067AF1EE10FA3FF4C3AD94ED366AB0EE57
:108E5000045AD4ED373AB0EE464AD4ED334A98EE90
:108E6000054AA3EE846AB0EE464A84ED366A98EE6F
:108E7000054A34EE476AA4EE867A28EE076A84ED46
:108E8000327AB5EEC06AF1EE10FA07DBB0EEC86ACE
:108E9000B4EE476AF1EE10FA38FE077AB1EE666A70
:108EA000B4EEC76AF1EE10FA01DC86FEC76A84ED03
:108EB000326A8DE5BB42A8BF3B4605EE903AECE531
:108EC00006EE903A9FED4E5A0128F8EEE66A66EEFD
:108ED000856A01F0AB8002287FF4BBAB88FE668A0E
:108EE000FFF7B7BB01F4805151EA0B017FF47AAD73
:108EF000002B7FF477AD4349434BB1F906109B8AB1
:108F00009942BFF66FAD002A3FF41BAF636B012A95
:108F100037490B603FF415AF022A4B603FF411AFA5
:108F2000032A8B603FF40DAF042ACB603FF409AFF6
:108F3000052A0B613FF405AF062A4B613FF401AFF0
:108F4000072A8B613FF4FDAECB61FAE6F6EE006ACC
:108F5000F4EEE67AF1EE10FA03DCBBF1000F3FF419
:108F60002DADF1EE688AF7EE006AF4EEE87A36EE9F
:108F7000C99AF1EE10FA00F15F86C7FEC97AF4EEE5
:108F8000C88AC4ED067AF1EE10FA01DCC9FE488AFF
:108F900038EEC88A14E51C49B7EE005A1B48898A86
:108FA0000088B1F57A7FDFED1A6A07EE100A9FEDAF
:108FB000136AB8BF4FF47A71B8EE477A07EE901A89
:108FC000F8EEE77A37EE677A76EEE77A87EE278A69
:108FD00088FE458A88FE068A98E400BF3C2100206E
:108FE000685701208FD00300584F0020D012012075
:108FF0004021002000007A4400007AC400000000F4
:109000000AD7233CE436012078560120DC2D0120CC
:109010000000FA440000C8421FED020A009228EE48
:10902000000A3DF025FC5B4B01901B68009A9842BA
:109030003FF412AC07EE900A574BB8EEE78A1B7864
:10904000DFED567A009328EE278A002B66D0544B2A
:10905000F7EE086A68EE485A9FED526A1B88B7EE31
:10906000007A07EE903AA5EE867AF8EEE77A67EE98
:10907000A67A67EE887A67EE877A17EE900A3CF058
:1090800097FA0B46484902460888CDE902233CF08E
:109090006DFADDE90223CDE90401CDE90223104692
:1090A0001946DDE904233CF061FD002800F07487D7
:1090B000DDE902013CF096FD009B0AEE100A012B4F
:1090C00000F08787022B29D1384B1B782D2B01D13B
:1090D000374B9880B82200941446364BB8EE4A0AB3
:1090E000354A1B79101913F0FD0F05D1334A116869
:1090F0003EF00AFE2F4B1B79013B314AB8EE4A0A7B
:10910000012B02EB040004F1240403D82B4B196853
:109110003EF0FAFDB4F5927FDFD1009C294B1B781D
:109120000093002B40F0B7871A4B01999AF8002062
:1091300094ED068A1960C6F85891FFF78DBB224B53
:10914000587A00283FF47BAA2048007800283FF492
:1091500076AA1B8806EE900AF7EE004A9FED1C4A9D
:1091600005EE903A1B4BF8EEE66A1B88F8EE655A5E
:1091700005EE103A65EEA66AB8EE455AC6EE855A77
:10918000C5FEC45AC5FEA45AFFF75BBAB0EE669A94
:10919000FFF7C1BA00000120180000200AD7233CC5
:1091A0008C2F0020ABAAAA3E882F002076580120E1
:1091B0007858012028290120FC270020444F002056
:1091C000682100200000002004360120F035012035
:1091D000713DAA3F70350120F04EBFEE006AF04BA2
:1091E000D6ED4C6AD6ED4B4AF5EEC06AD6ED4D6A27
:1091F00096ED485AD6ED495AF1EE10FA96ED4A3AF4
:10920000F5EEC04A597865EE054AC5FE252A54BFD9
:10921000F0EE463AF0EE673AF1EE10FAF5EEC06A7B
:10922000E5EEA54A54BFB0EE464AB0EE674AF1EE0D
:1092300010FAF4EEC32A54BFB0EE462AB0EE672A05
:1092400058BFB0EE676A0029F1EEE46A06FE026AD2
:10925000F1EE10FA40F15F83B0EE474AF0EE436A58
:10926000F0EE473A9FEDCF7A75EE254ADFEDCE7AE4
:1092700026EE877A84EE873AB4EEE73AF1EE10FAFA
:1092800008D5B4EEE55AF1EE10FACCBFDFEDC73ADF
:109290009FEDC64A9FEDC67ADFEDC45A36EEC77A17
:1092A000DFEDC47A87FE257A27EE277A002A3FF47D
:1092B00048AD9B78F3EE045ADFEDBF7A06EE903AA4
:1092C00094ED055A94ED043AF8EE662AD4ED0D4A71
:1092D00075EE255AD6ED026A62EEA72A002B40F001
:1092E000B58464EE266AD6ED032AD6ED047AE3EE61
:1092F000A26AE7EE866AF5EEC06AF1EE10FA00F1B6
:109300005186F7EE007A67EE266AC6FEE76AF0EE4F
:10931000457AE3EE267AF4EEE75AF1EE10FA00F21F
:109320001887F3EE046A77EEE67AA449012AC1EDC4
:10933000007A3FF406ADD6ED067AD6ED072A64EE44
:10934000277AD6ED086AE3EEA27AE6EE267AF5EE03
:10935000C07AF1EE10FA00F14687F7EE006A67EE88
:10936000277AC7FEE67AF0EE456AE3EE276AF0EE6A
:10937000667AF4EEE75AF1EE10FA00F2FC86F3EEAC
:10938000046A77EEE67A022AC1ED017A3FF4D9AC9D
:10939000D6ED0A7AD6ED0B2A64EE277AD6ED0C6A62
:1093A000E3EEA27AE6EE267AF5EEC07AF1EE10FA56
:1093B00000F11D87F7EE006A67EE277AC7FEE67AAE
:1093C000F0EE456AE3EE276AF0EE667AF4EEE75ACD
:1093D000F1EE10FA00F2DE86F3EE046A77EEE67A3A
:1093E000032AC1ED027A3FF4ACACD6ED0E7AD6ED8D
:1093F0000F2A64EE277AD6ED106AE3EEA27AE6EE43
:10940000267AF5EEC07AF1EE10FA00F11587F7EE44
:10941000006A67EE277AC7FEE67AF0EE456AE3EE69
:10942000276AF0EE667AF4EEE75AF1EE10FA00F2EF
:10943000C886F3EE046A77EEE67A042AC1ED037A71
:109440003FF47FACD6ED127AD6ED132A64EE277A7C
:10945000D6ED146AE3EEA27AE6EE267AF5EEC07A4D
:10946000F1EE10FA00F1FD86F7EE006A67EE277A5A
:10947000C7FEE67AF0EE456AE3EE276AF0EE667A1A
:10948000F4EEE75AF1EE10FA00F2C086F3EE046A49
:1094900077EEE67A052AC1ED047A3FF452ACD6EDB8
:1094A000167AD6ED172A64EE277AD6ED186AE2EE20
:1094B000A37AE6EE867AF5EEC07AF1EE10FA00F1C4
:1094C000EF86F7EE006A67EE877AC7FEE67AF0EE7F
:1094D000456AE7EE836AF0EE667AF4EEE57AF1EE3D
:1094E00010FAC0F2AD86F3EE046A77EEE67A062A49
:1094F000C1ED057A3FF425ACD6ED1A7AD6ED1B2ADC
:1095000064EE277AD6ED1C6AE3EEA27AE6EE267ABE
:10951000F5EEC07AF1EE10FA00F1D586F7EE006AAA
:1095200067EE277AC7FEE67AF0EE456AE3EE276A31
:10953000F0EE667AF4EEE75AF1EE10FA00F2958654
:10954000F3EE046A77EEE67A072AC1ED067A3FF475
:10955000F8ABD6ED1E7AD6ED1F2A64EE277AD6ED4B
:10956000206AE3EEA27AE6EE267AF5EEC07AF1EE14
:1095700010FA07D467EE277AB7EE007AC7FEC77AEB
:10958000A3EE275AF4EEC55AF1EE10FA00F2BB84AE
:10959000F3EE044A75EE644A00F0B5BC9811012060
:1095A0000C460120F304B53FD7B35D3F0000000037
:1095B0009A99193E9696963F0AD723BC40210020DF
:1095C000BEF1000F40F0AE81D5ED005ADDED063A58
:1095D00067EEA55AE7EE235AF5EE405AF1EE10FA7F
:1095E0000ADDBCF1000F07D0F0EE643AE4EE253A54
:1095F000F1EEE35A75EEC55AF0EE663AE6EE253A1C
:10960000FDEEE35A15EE901A8B4240F3B48405EE5A
:10961000903AF8EEE55AC149012AC1ED005A3FF4EB
:109620008EABD5ED045ADDED073A67EEA55AE7EEAD
:10963000235AF5EE405AF1EE10FA0ADDBCF1000FA4
:1096400007D0F0EE643AE4EE253AF1EEE35A75EE17
:10965000C55AF0EE663AE6EE253AFDEEE35A15EE0F
:10966000904AA34200F38085BC42A8BF3C4605EE69
:10967000904AF8EEE55A022AC1ED015A3FF45FAB79
:10968000D5ED085ADDED083A67EEA55AE7EE235A04
:10969000F5EE405AF1EE10FA0ADDBCF1000F07D0EA
:1096A000F0EE643AE4EE253AF1EEE35A75EEC55A6F
:1096B000F0EE663AE6EE253AFDEEE35A15EE904AF4
:1096C000A34200F36385BC42A8BF3C4605EE904A26
:1096D000F8EEE55A032AC1ED025A3FF430ABD5ED5E
:1096E0000C5ADDED093A67EEA55AE7EE235AF5EE7E
:1096F000405AF1EE10FA0ADDBCF1000F07D0F0EE8F
:10970000643AE4EE253AF1EEE35A75EEC55AF0EE0E
:10971000663AE6EE253AFDEEE35A15EE904AA3428C
:1097200000F34685BC42A8BF3C4605EE904AF8EEE1
:10973000E55A042AC1ED035A3FF401ABD5ED105AA6
:10974000DDED0A3A67EEA55AE7EE235AF5EE405AE8
:10975000F1EE10FA0ADDBCF1000F07D0F0EE643A2A
:10976000E4EE253AF1EEE35A75EEC55AF0EE663AAC
:10977000E6EE253AFDEEE35A15EE904AA34200F3D9
:109780002E85BC42A8BF3C4605EE904AF8EEE55A4D
:10979000052AC1ED045A3FF4D2AAD5ED145ADDEDE5
:1097A0000B3A67EEA55AE7EE235AF5EE405AF1EE72
:1097B00010FA0ADDBCF1000F07D0F0EE643AE5EED6
:1097C000843AF1EEE35A75EEC55AF0EE663AE5EEEC
:1097D000863AFDEEE35A15EE904A9C42C0F212859D
:1097E000BC42A8BF3C4605EE904AF8EEE55A062A70
:1097F000C1ED055A3FF4A3AAD5ED185ADDED0C3A98
:1098000067EEA55AE3EE875AF5EE405AF1EE10FAEC
:109810000ADDBCF1000F07D0F0EE643AE5EE843AC1
:10982000F1EEE35A75EEC55AF0EE663AE5EE863A89
:10983000FDEEE35A15EE904A9C42C0F2F984BC4218
:10984000A8BF3C4605EE904AF8EEE55A072AC1ED5E
:10985000065A3FF474AAD5ED1C5ADDED0D3A67EEB9
:10986000A57AE7EE237AF5EE407AF1EE10FA08DDFC
:10987000BCF1000F05D0E4EE274AF1EEE47A77EE72
:10988000C57AE6EE276AFDEEE67A17EE904AA34225
:1098900003DCA7423B46A8BF234607EE903AF8EE0A
:1098A000E77AC1ED077A00283FF49DAAFFF749BA8D
:1098B000B0EE669AFEF749BFBEF1000F00F0A48536
:1098C000B6EE008A9B4684ED068AFEF7D3BE05EE0F
:1098D000906AFFF712B9B0EE669AFEF750BF05EE38
:1098E000906AFFF739B9B0EE669AFEF762BF05EEEF
:1098F000906AFFF760B9B0EE669AFEF774BFDFEDCD
:10990000089AF0EE698AB0EE699AFEF78ABF05EE12
:10991000906AFFF77FB9B0EE476AA3E440210020C8
:1099200000000000D5ED003A9DED063A67EEA33A3F
:10993000E3EE073AF5EE403AF1EE10FA0ADDBCF13B
:10994000000F07D0B0EE643AA3EE843AF1EEC33ACA
:1099500073EEC53AB0EE663AA6EE233AF4EEC35A79
:10996000F1EE10FA40F30E831946B942A8BF39460A
:1099700003EE901AF8EEE33AB349012AC1ED003A3A
:109980003FF4DDA9D5ED043A9DED073A67EEA33A21
:10999000E7EE033AF5EE403AF1EE10FA0ADDBCF1DB
:1099A000000F07D0B0EE643AA4EE233AF1EEC33ACA
:1099B00073EEC53AB0EE663AA6EE233AF4EEC35A19
:1099C000F1EE10FA00F3C983FDEEC33A13EE904AAC
:1099D000A34240F3C38303EE903AF8EEE33A022A3F
:1099E000C1ED013A3FF4ABA9D5ED083A9DED083A37
:1099F00067EEA33AE3EE073AF5EE403AF1EE10FADD
:109A00000ADDBCF1000F07D0B0EE643AA3EE843A51
:109A1000F1EEC33A73EEC53AB0EE663AA6EE233ADB
:109A2000F4EEC35AF1EE10FA00F3A983FDEEC33A47
:109A300013EE904A9C4280F2A38303EE903AF8EE34
:109A4000E33A032AC1ED023A3FF479A9D5ED0C3A85
:109A50009DED093A67EEA33AE3EE073AF5EE403A98
:109A6000F1EE10FA0ADDBCF1000F07D0B0EE643A57
:109A7000A3EE843AF1EEC33A73EEC53AB0EE663A1D
:109A8000A6EE233AF4EEC35AF1EE10FA00F3868301
:109A9000FDEEC33A13EE904A9C4280F2808303EEBF
:109AA000903AF8EEE33A042AC1ED033A3FF447A9AD
:109AB000D5ED103A9DED0A3A67EEA33AE7EE033A88
:109AC000F5EE403AF1EE10FA0ADDBCF1000F07D0D6
:109AD000B0EE643AA3EE843AF1EEC33A73EEC53ABF
:109AE000B0EE663AA6EE233AF4EEC35AF1EE10FA5F
:109AF00000F36E83FDEEC33A13EE904AA34240F3A7
:109B0000688303EE903AF8EEE33A052AC1ED043A91
:109B10003FF415A9D5ED143A9DED0B3A67EEA33A43
:109B2000E7EE033AF5EE403AF1EE10FA0ADDBCF149
:109B3000000F07D0B0EE643AA4EE233AF1EEC33A38
:109B400073EEC53AB0EE663AA6EE233AF4EEC35A87
:109B5000F1EE10FA00F34F83FDEEC33A13EE904A94
:109B6000A34240F3498303EE903AF8EEE33A062A23
:109B7000C1ED053A3FF4E3A8D5ED183A9DED0C3A56
:109B800067EEA33AE7EE033AF5EE403AF1EE10FA4B
:109B90000ADDBCF1000F07D0B0EE643AA4EE233A20
:109BA000F1EEC33A73EEC53AB0EE663AA6EE233A4A
:109BB000F4EEC35AF1EE10FA00F34683FDEEC33A19
:109BC00013EE904AA34240F3408303EE903AF8EE3E
:109BD000E33A072AC1ED063A3FF4B1A8D5ED1C3AA5
:109BE0009DED0D3A67EEA37AE7EE037AF5EE407A43
:109BF000F1EE10FA08DDBCF1000F05D0E4EE274AC3
:109C0000F1EEE47A77EEC57AE6EE276AF4EEE65AEC
:109C1000F1EE10FA08DCFDEEE67A17EE904AA34268
:109C20003FF73BAE17EE903ABB42A8BF3B4634E647
:109C3000B0EE659AFEF7F1BDF0EE687AFFF79FB9D6
:109C400005EE906AFFF722B84021002064EE266AF4
:109C500096ED032AD6ED047AE2EE236AE6EE276A51
:109C6000F5EEC06AF1EE10FA00F1A081F7EE007A8D
:109C700067EE266AC6FEE76AF0EE457AE6EE837A7C
:109C8000F4EEE75AF1EE10FA00F26082F3EE046AA5
:109C900077EEE67AE749012AC1ED007A3FF451A850
:109CA000D6ED067A96ED072A64EE277AD6ED086A95
:109CB000E3EE827AE6EE267AF5EEC07AF1EE10FA5D
:109CC00000F1F282F7EE006A67EE277AC7FEE67AC5
:109CD000F0EE456AE3EE276AF0EE667AF4EEE75AB4
:109CE000F1EE10FA00F24482F3EE046A77EEE67ABF
:109CF000022AC1ED017A3FF424A8D6ED0A7A96ED46
:109D00000B2A64EE277AD6ED0C6AE3EE827AE6EE51
:109D1000267AF5EEC07AF1EE10FA00F1D882F7EE6D
:109D2000006A67EE277AC7FEE67AF0EE456AE3EE50
:109D3000276AF0EE667AF4EEE75AF1EE10FA00F2D6
:109D40003482F3EE046A77EEE67A032AC1ED027AF2
:109D50003EF4F7AFD6ED0E7A96ED0F2A64EE277A31
:109D6000D6ED106AE3EE827AE6EE267AF5EEC07A58
:109D7000F1EE10FA00F1D382F7EE006A67EE277A6F
:109D8000C7FEE67AF0EE456AE3EE276AF0EE667A01
:109D9000F4EEE75AF1EE10FA00F21782F3EE046ADD
:109DA00077EEE67A042AC1ED037A3EF4CAAFD6ED27
:109DB000127A96ED132A64EE277AD6ED146AE3EE52
:109DC000827AE6EE267AF5EEC07AF1EE10FA00F12C
:109DD000B582F7EE006A67EE277AC7FEE67AF0EE04
:109DE000456AE3EE276AF0EE667AF4EEE75AF1EEA2
:109DF00010FA00F20F82F3EE046A77EEE67A052A93
:109E0000C1ED047A3EF49DAFD6ED167A96ED172A91
:109E100064EE277AD6ED186AE3EE827AE6EE267AC9
:109E2000F5EEC07AF1EE10FA00F19782F7EE006AD3
:109E300067EE277AC7FEE67AF0EE456AE3EE276A18
:109E4000F0EE667AF4EEE75AF1EE10FA00F20382D1
:109E5000F3EE046A77EEE67A062AC1ED057A3EF45F
:109E600070AFD6ED1A7A96ED1B2A64EE277AD6EDFE
:109E70001C6AE3EE827AE6EE267AF5EEC07AF1EE1F
:109E800010FA00F18982F7EE006A67EE277AC7FEC2
:109E9000E67AF0EE456AE3EE276AF0EE667AF4EED3
:109EA000E75AF1EE10FA00F2D981F3EE046A77EE88
:109EB000E67A072AC1ED067A3EF443AFD6ED1E7A64
:109EC00096ED1F2A64EE277AD6ED206AE3EE827AB9
:109ED000E6EE267AF5EEC07AF1EE10FA00F16B822A
:109EE00067EE277AB7EE007AC7FEC77AA3EE275A45
:109EF000F0EE457AF4EEE75AF1EE10FA03D8F3EEFD
:109F0000044A77EEE44AC1ED074AFEF71ABFB6F8F5
:109F10000421824204D896F81421002A00F09C8083
:109F200096F81C21002A40F09780434A012DD4ED79
:109F3000077A92ED007AC4ED017A37EE676A84ED14
:109F4000037AC4ED057A84ED046A00F0DB81012117
:109F50000022C6F81891B0EE667A2170A261FEF771
:109F60002FBF05EE906AFEF7BFBE9F423E46A8BFD8
:109F70001E46FEF7DEBEB942A8BF394605EE901A6E
:109F8000FFF747BBFDEEC33A13EE901A8B427FF703
:109F9000ECAC03EE903AEDE49DED047B8DED027B9D
:109FA000FFF786B8F0EE457AFFF7B5B967EE227A8B
:109FB000B7EE002A67EEA66AF0EE457AC6FEC26AE0
:109FC000E3EE267A5CE6D6F81821A9EB0202FEF74A
:109FD00081BA1A4B1B782D2B01D1194B9880B8EE02
:109FE0004AAADFED187A184B9FED187AC7EE8A6AF5
:109FF000D3ED007A164B1A79F8EE677A531E12F0F9
:10A00000FD0FDBB267EE877A76EEA76A87EEA67A57
:10A0100040F06C81012B40F2AF810E4B83ED2F7A23
:10A0200083ED387A83ED417AFFF778B828EE268AF7
:10A03000FEF70FBB40210020602100207658012050
:10A040007858012083F9223E444F0020BD378635E1
:10A0500028290120FC270020DF49E04AD1ED007AC1
:10A06000D4ED026A1278C4ED017AC4ED036A002AC5
:10A0700000F0A28036EEE76A6A1C84ED046AC4ED43
:10A08000057A00F0CA80FF210022C6F818912170DD
:10A09000A261FEF795BEB4F84C3028EE486AF7EEA0
:10A0A000085ADFEDCF6A07EE903AB7EE007AF8EE85
:10A0B000E77AA6EE267A67EEA57A27EE888A68EE1A
:10A0C000077A17EE900A3BF073FA02460B46B4F893
:10A0D0005000CDE902233BF049FADDE90223CDE946
:10A0E0000401CDE9022310461946DDE904233BF0C3
:10A0F0003DFD18B99DED047B8DED027BDDE902018C
:10A100003BF070FD009B0290012B00F0B280022B0F
:10A110007FF40AA807EE900AB24BB348B8EE678AFC
:10A1200019680093B0EE480A3DF0EEFD009BB0EEDA
:10A13000480AAE4819683DF0E7FD009BB0EE480ABA
:10A14000AB4819683DF0E0FDFEF7EEBFF0EE647A33
:10A15000A0E5F0EE647AFFF7E8B81C46BC42A8BF61
:10A160003C4603EE904A38E405EE903AFFF781BA98
:10A17000F0EE647ABCE5F0EE647AFFF704B91C46B1
:10A18000BC42A8BF3C4603EE904A58E405EE903A24
:10A19000FFF79EBAF0EE647AFFF722B91C46BC4284
:10A1A000A8BF3C4603EE904A7BE4F0EE647ACCE52F
:10A1B00005EE903AFFF7BBBA37EEE66AF0EE667A44
:10A1C0005AE7F0EE647AFFF738B9F0EE647AE9E521
:10A1D0001C46BC42A8BF3C4603EE904A93E405EE01
:10A1E000903AFFF7D3BAF0EE457AFFF7C2B8F0EE37
:10A1F000457AFFF7EBB81C46BC42A8BF3C4603EECD
:10A20000904AB2E405EE903AFFF7EFBAF0EE647AC6
:10A21000FFF740B9F0EE647AF1E5D6F81821DFEDEA
:10A22000757AA9EB02022570C4ED067AFEF7C4BD6B
:10A2300005EE903AFFF708BBF0EE457AFFF7F3B86A
:10A24000F0EE647AFFF753B91C46BC42A8BF3C4607
:10A2500003EE904ABBE4F0EE647AFDE5F0EE647A3A
:10A2600027E6F0EE457AFFF70BB9F0EE647AFFF7D8
:10A270006BB907EE900ADFED606A604BF8EE677A23
:10A2800086EEA77AD3ED006A37EE267AC6EE877A95
:10A29000C4ED167AC4ED1F7AC4ED287AFEF744BFE8
:10A2A000F0EE457AFFF719B967EE226AB7EE002A99
:10A2B00066EEA77AF0EE456AC7FEC27AE3EE276A39
:10A2C000F0EE667A0AE5F0EE457AFFF733B967EE0D
:10A2D000226AB7EE002A66EEA77AF0EE456AC7FE5C
:10A2E000C27AE3EE276AF0EE667A24E5012B3EF6A9
:10A2F00015AF434B83ED2F7A83ED387A83ED417AA6
:10A30000FEF70CBFD6F81821B0EE667ADFED397A89
:10A31000A9EB02022570C4ED067AFEF74DBD67EE8B
:10A32000226AB7EE002A66EEA77AF0EE456AC7FE0B
:10A33000C27AE3EE276AF0EE667A29E567EE226AD2
:10A34000B7EE002A66EEA77AF0EE456AC7FEC27A3B
:10A35000E3EE276AF0EE667A47E567EE226AB7EE2B
:10A36000002A66EEA77AF0EE456AC7FEC27AE3EEEF
:10A37000276AF0EE667A65E5224A214B82ED2F7A54
:10A3800082ED387A82ED417A83ED2F7A83ED387A47
:10A3900083ED417AFEF7C2BE67EE226AB7EE002A6D
:10A3A00066EEA77AF0EE456AC7FEC27AE3EE276A48
:10A3B000F0EE667A73E527EE227AF7EE006A27EE72
:10A3C000277AF0EE457A87FE667AE3EE077A91E522
:10A3D0004FF0010BFEF74EB93C21002068570120D9
:10A3E000ABAAAA3E984E00207000002094000020E6
:10A3F000B80000200000000083F9223E184F002022
:10A4000068210020FC270020F346FEF733B900BF87
:10A4100038B50B4B1B78093B012B00D938BD0546DD
:10A4200045200C4622F082F90D2022F07FF92846C3
:10A4300022F07CF92046BDE8384022F0A9BA00BFDE
:10A440005E2A01200C4B014610B50446186818F02E
:10A4500049FC0A4B082241F22101188880EA0420B5
:10A4600010F4004F4FEA400018BF4840013A80B254
:10A47000F6D1188010BD00BF804B0120884B012011
:10A4800010B5054C206818F029FC0028FAD0206887
:10A49000BDE8104018F01ABC804B012010B5FFF742
:10A4A000EFFF094A082141F22104138883EA0023BF
:10A4B0009BB213F4004F4FEA430318BF63400139C6
:10A4C0009BB2F6D1138010BD844B0120F8B50A4D24
:10A4D000AB897BB1094C0A4F04F59076AB892046D5
:10A4E0002434396800EE103AB8EE400A32F03EFDEE
:10A4F000B442F3D1F8BD00BFA8520120FC120120E4
:10A50000984E002070B4124C01300022234604F112
:10A5100070019A719A705A7003F8072B8B42F8D128
:10A520000C4B03EBC00090F888507DB1D0F88C60E4
:10A53000C5EBC5050023F218E1181068E050073399
:10A5400090889D42927988808A71F4D170BC70475E
:10A550001C140120107D0408F8B5124D002470224F
:10A5600005F52177214605F53E7085F8F4423DF06A
:10A5700063FB214607F174040DE01E6895F8F42290
:10A580000E5107319E8801329B79702985F8F4229B
:10A590008680837105D07B18081993F90220002A60
:10A5A000EBD1F8BD981101201B4AD2F86C33F0B4FE
:10A5B00092F86853D3B1194B03EBC50393F8884065
:10A5C000D3F88C7082F8F44287B17CB1C4EBC40438
:10A5D00002F53E720023F918D0180E68D6500733E2
:10A5E0008E889C42897986808171F4D105F0EF02D2
:10A5F0000B49082A0B7801D00E2D06D143F0100329
:10A60000182D0B7006D0F0BC704723F01003192DE5
:10A610000B70F8D1F0BC9FE798110120107D040861
:10A62000603501200B490C4A91F868330B4802EB66
:10A63000C3020B4B006852780340C1F86C2313B17E
:10A640000123C1F86C33074B074AC3E90022C3E971
:10A65000022270479811012064D80408D0560120C6
:10A6600020001000344A0120DC05DC05F8B5CD4C93
:10A67000B6EE007A83880546D4ED3A7A67EE877A9B
:10A680002DED068BFCEEE77A17EE906A9E4280F085
:10A69000B581C288964200F24783C34BC34FC4F8CA
:10A6A000EC306B88B5F8622097ED005A9342C049B0
:10A6B000B8EE455A38BF1346D1ED004A9AB212B1EE
:10A6C0009E4200F28082B84BC4F85C31B5F84C3041
:10A6D00013B19E4280F0C681B34BC4F860312B8821
:10A6E00013B19E4280F04583AF4995F85030DFEDBD
:10A6F000B16A07EE103AB04A0023C4F8D811B8EE98
:10A70000477A94F8DC11C2F85C31C6EE877A77EEAE
:10A71000A47A84EEA77A82ED587A59B392F870231E
:10A72000D4ED7E7A06EE102AC4F8E03186EEA77AE0
:10A73000C4F8E831C4F8F031C4F8FC31C4F804328C
:10A74000C4F80C32B8EE466AC6EE867A77EE246A12
:10A7500084EEA67A77EEA46AC4EEA67A84ED807AB7
:10A7600084ED827A84ED847AC4ED797AC4ED7B7AC3
:10A77000C4ED7D7ADFED917AB7EE004A9FED907AD5
:10A7800074EEA77ADFED8F3A25EE075A8E4BB0EEC6
:10A79000633ADFED8E1A84EEA72A03F16C02DFED37
:10A7A0008C2A16469FED8B0ADFED8B0A9FED8B1AE4
:10A7B000FDEEC57ADFED8A6A75EE233A17EE900A50
:10A7C000FDEEE37A203017EE901A2031402800F297
:10A7D0008680B4EEE15AF1EE10FA40F3BF82B0EE9B
:10A7E000457ADFED805A9FED806AB4EEC67A77EE47
:10A7F000657AF1EE10FAB0EE677AF6DCF4EEE27A02
:10A80000F1EE10FA40F1B282DFED765A9FED776AF1
:10A81000F4EEC67A37EEA57AF1EE10FAF0EE477A4A
:10A82000F6D4B4EEC37AF1EE10FA40F3A68031EE1E
:10A83000C77A67EE077A9FED6E6AB0EE608A4029AC
:10A84000F0EE418A67EE275AA7EE808AE7EE888A03
:10A85000B0EE448AF0EE447AA5EEA87AA7EE068A16
:10A86000E7EE467AC7EE888A3FD9B6EE006AB0EEC8
:10A87000667AF7EE005AC4EE087AC3ED048AC3ED97
:10A88000066A243343ED046A083243ED016A43ED5E
:10A89000026A42ED026A02ED012A27EE866A67EE3D
:10A8A000A55A27EE877A03ED096A03ED076A43ED9F
:10A8B000085A03ED067AB34288D195F87530002B1B
:10A8C00040F03782DFED4B7A002374EEA77A2364E1
:10A8D000BDEC068B84EEA77A84ED117AF8BDF7EE15
:10A8E000008A4029B0EE688ABFD8B4EEC35AF1EEB0
:10A8F00010FA40F3BC82B0EE637ADFED3A5A9FED76
:10A900003A6AB4EEC67A77EE657AF1EE10FAB0EEF6
:10A91000677AF6DCF4EEE27AF1EE10FA40F1A48206
:10A92000DFED305A9FED316AF4EEC67A37EEA57A44
:10A93000F1EE10FAF0EE477AF6D4B4EEC37AF1EE07
:10A9400010FA24DD31EEC77A67EE077AF0EE609AEE
:10A95000B0EE41AA67EE275AE7EE809AB8EE009A69
:10A96000B6EE006AA7EEA9AAA5EE8A7A74EE475A57
:10A9700027EE097A25EE866A7DE7DFED1F7AB4EED1
:10A98000E77AF1EE10FA48BF32EEC77A51E7DFED11
:10A990001A7AB4EEE77AF1EE10FA48BF32EEC77ACF
:10A9A000D2E700BF1C00002021360000984E002096
:10A9B000184F002083F9223E981101203661823C15
:10A9C00098C4033ADB0FC93F30020020DB0F494037
:10A9D000DB0F49C092E741B99730083C15A82ABE61
:10A9E00000000000DB0FC940E4CB1641E4CB16C1E8
:10A9F000F304353FF2D62D3CDB0FC9BF002B3FF4EB
:10AA00004CAEC288002A3FF448AE07EE902A07EE0B
:10AA1000103AE14FF8EE677AE04BB8EE478A3968B2
:10AA2000DF4827EEE77AC4F8EC3068EE277AB0EE1C
:10AA3000480AA8EE087AC7EE878AF0EE680A36F070
:10AA40005DFEF0EE680A3968B0EE480AD54836F087
:10AA500055FEF0EE680AB0EE480A3968D24836F082
:10AA60004DFE1EE695F86020002A00F0E081012AE4
:10AA70007FF432AE07EE903A9FEDCC3AC74AF7EE3C
:10AA8000003AB8EE677ADFEDCA7AF0EE432AC94B96
:10AA9000C4F8602127EE277A03F16C00DFEDC61AB7
:10AAA0009FEDC62A27EE057A9FEDC50ADFEDC50AA0
:10AAB0009FEDC51AFDEEC77A9FEDC46A37EE033AE3
:10AAC00017EE901AFDEEC37A203117EE902A402936
:10AAD00002F1200272D8B4EEE17AF1EE10FA40F3FE
:10AAE0008682F0EE476A9FEDBA4ADFEDBA5AF4EE7D
:10AAF000E56A76EEC47AF1EE10FAF0EE676AF6DCFB
:10AB0000F4EEC27AF1EE10FA40F16E829FEDB04A97
:10AB1000DFEDB15AF4EEE57A77EE846AF1EE10FAE1
:10AB2000F0EE667AF6D4F4EEE26AF1EE10FA40F353
:10AB30003E8271EEE66A66EEA67ADFEDA85AB0EEC6
:10AB4000608AF0EE418A26EEA74AA7EE808AE7EEF9
:10AB5000888AB0EE638AF0EE637AE4EE286AA6EEA5
:10AB6000A58AE6EEE57AC7EE888A402A40F282811D
:10AB7000F6EE006AF0EE467AF7EE005A83EE884A67
:10AB8000C3ED048A83ED066A243303ED046A03ED02
:10AB9000016A03ED026A66EE846A65EE845A67EE26
:10ABA000847A43ED096A43ED076A43ED085A43EDA1
:10ABB000067A98423FF493AD40298CD9F7EE008A8B
:10ABC000B0EE688AD1E795F82630002B00F01481AA
:10ABD000012B7FF478AD07EE102ADFED757A9FED3B
:10ABE000733AF7EE003A65EE277A7D4AF8EE476A47
:10ABF0007C4BF0EE432AC4F85C2103F16C00DFEDDE
:10AC00006E1A66EEA76A9FED6D2A9FED6D0ADFED65
:10AC10006D0AFDEEE67A9FED6C1A36EE833A9FEDF3
:10AC20006B6A17EE901AFDEEC37A203117EE902A68
:10AC3000402902F1200272D8F4EEE16AF1EE10FA36
:10AC400040F3D881B0EE667A9FED614ADFED615A3C
:10AC5000B4EEE57A77EE447AF1EE10FAB0EE677A68
:10AC6000F6DCF4EEC27AF1EE10FA40F1BA819FED13
:10AC7000584ADFED595AF4EEE57A37EE847AF1EE70
:10AC800010FAF0EE477AF6D4B4EEE27AF1EE10FA6A
:10AC900040F3978131EEC77A67EE077ADFED4F5ABE
:10ACA000B0EE608AF0EE418A27EE274AA7EE808A4E
:10ACB000E7EE888AB0EE638AF0EE637AA4EE287A33
:10ACC000A7EE258AE7EE657AC7EE888A402A40F229
:10ACD0002181B6EE007AF0EE467AF7EE005A83EE66
:10ACE000884AC3ED048A83ED066A243303ED046ABF
:10ACF00003ED016A03ED026A27EE047A65EE845AD9
:10AD000067EE847A03ED097A03ED077A43ED085A7A
:10AD100043ED067A83423FF4D9AC40298CD9F7EE53
:10AD2000008AB0EE688AD1E7B3B2002A3FF4B5AC2E
:10AD30006BE69FED2D7ADFED2D7A34EE877AC4ED48
:10AD4000326A74EEA77AC4ED366AC4EE876A84EE7E
:10AD5000A77AC4ED336A84ED377AB3E5F0EE457A2D
:10AD6000F4EEE27AF1EE10FA3FF54EADB0EE677A0E
:10AD700057E507EE903ADFED1F6A00231C49F8EE15
:10AD8000677AC4F8D03186EEA77A77EE247A84EE1B
:10AD9000A77A84ED757AA8E4984E002071350000FA
:10ADA0000C0100203001002054010020DB0FC93FBE
:10ADB00027D4D23680010020DB0F4940DB0F49C089
:10ADC00092E741B99730083C15A82ABE0000000060
:10ADD000DB0FC940E4CB1641E4CB16C1F304353F89
:10ADE000B535000070000020BA41BA3C3661023C23
:10ADF0000536000083F9223E07EE902A5FED036AD4
:10AE00000023844AF8EE677AC4F85C21636586EE15
:10AE1000A77AA367C4F89C3037EE247AC4EE877A09
:10AE2000C4ED167AC4ED1F7AC4ED287A4EE407EE1D
:10AE3000903ADFED796A0023764AF8EE677AC4F833
:10AE40006021C4F8643186EEA77AC4F88831C4F86A
:10AE5000AC3137EE247AC4EE877AC4ED5A7AC4ED69
:10AE6000637AC4ED6C7A3AE4B0EE677A65E5F0EEA9
:10AE7000637A4FE5B4EEE27AF1EE10FA40F3C68061
:10AE8000F0EE437A9FED654ADFED655AF4EEE57A20
:10AE900077EEC46AF1EE10FAF0EE667AF6DCF4EEC4
:10AEA000C26AF1EE10FA40F1AE809FED5C4ADFED30
:10AEB0005D5AF4EEE56A76EE847AF1EE10FAF0EE81
:10AEC000676AF6D4F4EEE27AF1EE10FA00F38680C7
:10AED000DFED556AF4EEE67AF1EE10FA48BF72EE55
:10AEE000677A67EEA75AF0EE609AB0EE41AA27EEB5
:10AEF000A59AE5EE809AB8EE004AF6EE006AA5EE55
:10AF0000A9AAE9EE0A7A73EEE75A67EE847A65EE4B
:10AF1000A66A33E6F4EEE26AF1EE10FA70DDF0EEC6
:10AF2000437A9FED3E4ADFED3E5AF4EEE57A37EE86
:10AF3000C47AF1EE10FAF0EE477AF6DCB4EEC27A9B
:10AF4000F1EE10FA59D59FED354ADFED365AB4EEE1
:10AF5000E57A77EE047AF1EE10FAB0EE677AF6D47D
:10AF6000F4EEE27AF1EE10FA35DC9FED2F7AF4EE92
:10AF7000C77AF1EE10FA48BF72EE677A67EEA75A09
:10AF8000F0EE609AB0EE41AA27EEA59AE5EE809A1F
:10AF9000B8EE004AB6EE007AA5EEA9AAE9EE0A7A62
:10AFA00073EEE75A67EE847A25EE877A97E6DFED4F
:10AFB0001E7AF4EEE76AF1EE10FA48BF72EE666AA6
:10AFC000B9E5DFED197AB4EEE77AF1EE10FA48BF91
:10AFD00032EE477A60E671EEE77ACFE771EEE77A14
:10AFE0007FE7B0EE677A4FE6F0EE676A9BE5F0EE3A
:10AFF000477A85E5F0EE667A33E6F0EE477AAFE71A
:10B00000B0EE437A9AE7F0EE667A5BE7F0EE436AD9
:10B0100045E700BF0536000083F9223EDB0FC9403B
:10B02000E4CB1641E4CB16C1DB0FC9BF01288CBFAE
:10B0300000230123884208BF00230BB1012900D956
:10B040007047064BC0EB4010C1EB41117C2203EB73
:10B05000800003EB81013BF073BB00BFB4270120EC
:10B0600090F847302DE9F0412DED028B002B40F098
:10B07000C481DFEDE60A037A90F80AC003EE903A45
:10B08000437A07EE90CA077C04EE103A8389B8EE43
:10B09000E71A07EE107A04EE903A837B867DB8EECD
:10B0A000C44A05EE103A037DF8EEE44A9FEDD80A53
:10B0B00005EE903AC37B9FEDD72AF8EEC72A06EE3D
:10B0C000103A437D03EE106A24EE004A07EE903AF0
:10B0D000438A64EE824A9FEDD08A06EE903A038B53
:10B0E000F8EEE33ADFEDCD1A07EE103AB8EEC55AA6
:10B0F000F8EEE55ACA4BB8EEC66A90F86B50F8EE17
:10B10000E77A83EDA84AB8EEC33AC3EDAA4AF8EE4F
:10B11000E66AC3EDA60AB8EEC77A63EE883A21EE76
:10B12000211A25EE085A65EE885AC3EDA73A26EE95
:10B13000006A83EDA91A67EE807A83EDAB5A22EE9E
:10B14000A14AC3EDAF5A63EE214A83EDAC6A66EEC5
:10B15000826AC3EDB07A27EE027A83EDAD4AC3ED81
:10B16000B14AC3EDAE6A83EDB27A2DB9B0EE047A7E
:10B1700067EE877AC3EDB07A642290F82E40018F93
:10B18000F7EE004AB0F836E0C4F1AF0802FB01F177
:10B19000141B02FB0EF205EE108A9FEDA24A06EE8A
:10B1A000904A07EE902A827EB8EEC55A07EE101A32
:10B1B00005EE902AC27EF8EEE66A9FED9B3A06EE17
:10B1C000102A9A4A25EE045A9FED994AD2ED003A88
:10B1D000B8EEC77A027FF8EEE77AF8EEE55A83ED2B
:10B1E000B75AB8EEC66A05EE102A90F8271027EE77
:10B1F000237A66EE836A90F82F4067EEA37A63297C
:10B2000065EE845A83EDBA7A26EE046AC3EDB86A15
:10B21000B8EE455A83EDB97AC3EDBB7AC3EDB35AA4
:10B2200083EDB46A83EDB55AC3EDBC4A83F8D842C6
:10B230000BD807EE901AB0EE647AF8EEE77AA7EE34
:10B24000C37AC4EE877AC3EDBC7A90F8454090F893
:10B250004F2005EE104A848F07EE902A9FED747AF6
:10B2600005EE904A448FF8EEE77A90F8441006EE27
:10B27000104AC48F4FF47A7201EB810106EE904AB6
:10B28000B0F8484067EE877AB0F840E007EE104A21
:10B29000B0F84A40B0F842804900C3ED317A07EE79
:10B2A000904A90F8514002FB0EFE02FB08F2B8EE05
:10B2B000455A0034F8EE655AB8EE466AC3F80013F2
:10B2C000F8EE666A18BF0124B8EE477A818EF8EE70
:10B2D000677AC3F8FC2290F8302083EDC15AC3EDA1
:10B2E000C25A83EDC36AC3EDC46A83EDC57AC3ED68
:10B2F000C67AC3F8F8E283F81C43A3F8F41283F883
:10B300003C20002A00F071814FF07E51494A1160C3
:10B3100090F854209FED487A07EE902AB0F85A40F2
:10B320004649F8EEE77ADFED466A81F8702390F837
:10B330005C10C7EE274A07EE104A90F8584005EE19
:10B34000901A90F8562007EE904A90F85D1005EE9E
:10B35000102A3C4AB8EE477A06EE101AF8EE677AE1
:10B3600090F85E109FED324AB8EE455A27EE267AE5
:10B3700006EE901A90F85F1067EE847A324CF8EE81
:10B38000655A82ED007A07EE101A90F85220B8EE56
:10B39000466A2E49F8EE666A0032C4ED007A81ED05
:10B3A000005AB8EE477A18BF012290F8554090F83D
:10B3B000531083F8202383F8DC41254A90F8574046
:10B3C00083F82413B0F86210C3EDCA4AC3EDCB5A18
:10B3D00083EDCC6AC3EDCD6A83ED7E7A14700029CB
:10B3E0003CD090F82620002A00F01E81012A40F06F
:10B3F0001781184A0224147032E007EE903A9FED4C
:10B40000167AF8EEE77AC7EE270A34E60000000065
:10B41000033F7A3E9D381039D730033D97AC0A3A46
:10B420001C0000206666E63F0AD7233C184F002028
:10B43000CDCCCC3D0C0000200000484498110120E8
:10B440006F12833A544F0020404F00203C4F0020A1
:10B45000944F0020000000200000C842744A117080
:10B46000A3F8501090F86610724A83F8381390F8D9
:10B470006910DFED717A07EE101A90F86D101268FE
:10B4800006EE901AB8EEC77A12F002029FED6B6AD0
:10B49000F8EEE66AB0F8644018BF90F8682000350E
:10B4A00027EE067A90F86C1066EEA77A18BF012591
:10B4B000A3F84C4083F84453F5EE407A83F83C23DC
:10B4C00083F8481383EDD07AF1EE10FAC3ED307AA9
:10B4D0000FD0B7EE007A9FED5A5A77EEA75A85EE55
:10B4E000266A77EE677A87EEA57A83ED386A83ED70
:10B4F000397A90F86E2012B16245C0F08680DFED97
:10B50000516A90F86F20C3EDD36AEAB1BA421BD2F8
:10B5100007EE902A90F87020B8EEE77A07EE907A5E
:10B52000F8EE677AC7EE276AC3EDD46AA2B19642F5
:10B5300012D907EE902AB8EEE77A07EE906AF8EE95
:10B54000677AC7EE273A09E0DFED3E6A90F870208F
:10B55000C3EDD46A002AEAD1DFED3A3A90F87120BF
:10B56000DFED396A07EE102A90F87220D3ED3A7AAF
:10B5700005EE102A90F8752067EEA67A9FED334A03
:10B5800006EE902AB0F87820B8EEC77ADFED2A4AA6
:10B5900005EE902A90F87A20B8EEC55AC3EDD53A58
:10B5A00067EE877A06EE102AF8EEE66A90F87620C3
:10B5B00027EE047A003267EE857A66EEA46AF8EE2A
:10B5C000655A18BF0122B8EE466A83EDD67AC3EDFC
:10B5D000D77AC3ED356AC3EDD85A83F8642383ED77
:10B5E000DA6ABDEC028BBDE8F081A1F57A71B7EEA5
:10B5F000007ADFED176A07EE901A164AF8EEE77A3E
:10B60000A7EEA67A82ED007A82E607EE902AB8EEDF
:10B61000E77A07EE90CAF8EE677AC7EE276A70E716
:10B62000034A002414701BE7014A0124147017E731
:10B6300000000020D03601200AD7233C033F7A3E89
:10B640000000C8420000000095BF5633ACC5A736C5
:10B650006F1283390C0000202DE9F04FD74E0746BA
:10B66000D74C33689FEDD76ADFEDD76AD74D2DED04
:10B67000068B94F8742383B003FB02F3D44A07EEDD
:10B68000903A1360D34AF8EE677A86EE277A67EE2F
:10B69000A67AC2ED007A85ED3A7A002B40F0A580BB
:10B6A000CD4BC5F8EC30C5F85C31C5F8D831DFF8C2
:10B6B0008C833846FFF7D4FCDFF884C3002298F867
:10B6C00006308CF80020002B00F0868094F874334C
:10B6D0003268DFF870A302FB03F3C0499AF8004018
:10B6E00007EE903A0F78F8EE674AC5EDDB4A002C7A
:10B6F00040F0AE810121DFF850E301949AF8043064
:10B70000002B75D1002F39D0BAF8083000229FEDF8
:10B71000B46A012F07EE903A9FEDAB7AB14BF8EE89
:10B72000677A24EE877A1A60C6EE276A76EE876A11
:10B73000C7EE267AC3ED017A20D0022F9A60C3EDBE
:10B74000037A1BD0032F1A61C3ED057A16D0042F9C
:10B750009A61C3ED077A11D0052F1A62C3ED097AF9
:10B760000CD0062F9A62C3ED0B7A07D0072F1A630D
:10B77000C3ED0D7A02D09A63C3ED0F7A98F81830B2
:10B780009EF8342A07EE903A9EF800309FED967AA4
:10B790001344F8EEE77A9FED956A13FB07F7944A96
:10B7A000C7EE276A9FED937AFFB2934907EE907A2E
:10B7B00064EE864AF8EEE77AA7EEA47AF7EE477AC7
:10B7C000FCEEE77AC1ED006A17EE903A137003B011
:10B7D000BDEC068BBDE8F08F8849894A0B60136089
:10B7E00003B0BDEC068BBDE8F08FFEF73FFF5EE7D0
:10B7F000BAF80620BCEEE41A9AF80550744407EE35
:10B80000902A019840F634229FED907AF8EEE77A7C
:10B8100006EE105A02FB00F2B8EE411AB8EEC66A04
:10B82000DFED785A27EE877A0EEB0209DFED766AB4
:10B8300085EEA72A8CF8001070490EF802300C60D3
:10B8400089ED037A21EE261AC9ED044A89ED016AD1
:10B85000002F00F0A6805C1C4FF0000BDFED6B0AA0
:10B86000DFED6B2A9FED6B3A6C234E469FED6A8AA3
:10B8700013FB079C9FED690A334600200121DFED91
:10B88000681ADFED688ADFED686ADFED685A07EE57
:10B89000900AB8EEE76A26EE016AFDEEC67A17EE68
:10B8A000902A2032402A00F2BB81B4EEE06AF1EE29
:10B8B00010FA40F35B82B0EE467A9FED5D5AB4EE2B
:10B8C000C57A77EE667AF1EE10FAB0EE677AF6DCBA
:10B8D000F4EEE27AF1EE10FA40F145829FED555A0E
:10B8E000F4EEC57A37EEA67AF1EE10FAF0EE477A6A
:10B8F000F6D4B4EEC37AF1EE10FA40F3168230EECD
:10B90000C77A27EE075AF0EE403AB0EE619A25EE7C
:10B91000074AE5EE083AF7EE007AA5EE239AB0EE74
:10B92000675AA4EE097AB0EE674AA2EE474AA2EE41
:10B93000075AB0EE447A87EE854AC7EE053A36EEEE
:10B94000037AFDEEC77A17EE902A2032402A40F2A1
:10B95000AA81B0EE657AC7EE057A013183ED054A1A
:10B960002844A14283ED074AC3ED093A03F12403B9
:10B97000C3ED025AC3ED015AC3ED045AC3ED035A95
:10B9800043ED037A43ED017A81D16C36B4457FF4FF
:10B9900073AF0BF1010B09F55879BBF1030F7FF47D
:10B9A00063AF9FED257A40F63423019AC7EE247ADF
:10B9B00003FB02E3C3ED027AA4E600BF444F00207C
:10B9C0009811012000247449BD3786351C000020E1
:10B9D000984E0020184F0020213600004C450020D2
:10B9E00083F9223E20460120555555406E12833A78
:10B9F000702F002048E1FA3E802F00202C2F0020DD
:10BA0000282F00200000484227D4D236DB0F4940BF
:10BA1000DB0F49C0DB0FC93F92E741B99730083CC3
:10BA200015A82ABEDB0FC9BFDB0FC940000000000C
:10BA3000E4CB1641E4CB16C10060EA48CC580120A3
:10BA4000782F0020F84C0120B42F00200AD7233C87
:10BA500007EE902ABAF802309AF80150B8EE679AC9
:10BA600007EE903A1FED077A06EE105AF8EEE77AE5
:10BA7000DFF860E3BCEEC91A0123B8EEC66ADFED59
:10BA8000C56A27EE877ADFEDC45AB8EE411AC34A79
:10BA90008EF8004085EEA72A8EED037A8EED049A8B
:10BAA000C2F800E08EED016A8CF8003021EE261A13
:10BAB000002F00F0A2801C44F346DFEDB90ADFED51
:10BAC000B92A9FEDB93A6C235E469FEDB88A13FB05
:10BAD00007B99FEDB70A334600200121DFEDB51A03
:10BAE000DFEDB58ADFEDB56ADFEDB55A07EE900AF6
:10BAF000B8EEE76A26EE016AFDEEC67A17EE902AE6
:10BB00002032402A00F28580B4EEE06AF1EE10FAAD
:10BB100040F32681B0EE467A9FEDAA5AB4EEC57A7C
:10BB200077EE667AF1EE10FAB0EE677AF6DCF4EEB4
:10BB3000E27AF1EE10FA40F110819FEDA35AF4EE93
:10BB4000C57A37EEA67AF1EE10FAF0EE477AF6D41F
:10BB5000B4EEC37AF1EE10FA40F3DF8030EEC77A2C
:10BB600027EE075AF0EE403AF0EE619A27EE054ACA
:10BB7000E5EE083AF7EE007AE3EE859AB0EE675A02
:10BB8000A4EE297AB0EE674AA2EE474AA2EE075A1F
:10BB9000B0EE447A87EE854AC7EE053A36EE037A70
:10BBA000FDEEC77A17EE902A2032402A3FD9B0EE38
:10BBB000657AC7EE057A013183ED054A28448C4247
:10BBC00083ED074AC3ED093A03F12403C3ED025A9A
:10BBD000C3ED015AC3ED045AC3ED035A43ED037A92
:10BBE00043ED017A82D16C36B1457FF474AF0BF529
:10BBF000587B764B5B457FF466AF9FED757A0123EA
:10BC000040F634240221C7EE097A0193CEED027A80
:10BC100074E5F7EE003AB0EE634AB0EE635ABDE762
:10BC2000F7EE003AB0EE634AB0EE635A87E6B4EE40
:10BC3000C36AF1EE10FA40F39F809FED626AB4EEA2
:10BC4000C67A77EE667AF1EE10FAB0EE677AF6DC35
:10BC5000F4EEE27AF1EE10FA40F196809FED5A6A26
:10BC6000F4EEC67A37EEA67AF1EE10FAF0EE477AE5
:10BC7000F6D4B4EEC37AF1EE10FA5EDD30EEC77A98
:10BC800027EE076AB0EE40AAF0EE61AA66EE079AC8
:10BC9000A6EE08AAF8EE007AE6EE0AAAA9EEAA7ABB
:10BCA00027EE277A85E7B4EEC36AF1EE10FA6EDD6F
:10BCB0009FED446AB4EEC67A77EE667AF1EE10FA3A
:10BCC000B0EE677AF6DCF4EEE27AF1EE10FA50D5D7
:10BCD0009FED3D6AF4EEC67A37EEA67AF1EE10FAE1
:10BCE000F0EE477AF6D4B4EEC37AF1EE10FA2CDD1A
:10BCF00030EEC77A27EE076AF0EE409AB0EE61AAFE
:10BD000026EE079AE6EE089AF8EE007AA6EE29AA41
:10BD1000A9EE0A7A27EE277A1DE6B4EEE87AF1EE6C
:10BD200010FA48BF32EEC77A1AE7B4EEE87AF1EEBD
:10BD300010FA48BF32EEC77AE3E5B4EEE87AF1EEE6
:10BD400010FA48BF32EEC77A9AE7B4EEE87AF1EE1D
:10BD500010FA48BF32EEC77ACCE7B0EE677AF7E662
:10BD6000F0EE467AE3E6B0EE677AC2E5F0EE467AA8
:10BD7000AEE5B0EE677AB6E7F0EE477AF4EEE27A37
:10BD8000F1EE10FA3FF56AAFB0EE677A71E7F0EEC8
:10BD9000477A98E727D4D23600004842282F00205F
:10BDA000DB0F4940DB0F49C0DB0FC93F92E741B9C8
:10BDB0009730083C15A82ABEDB0FC9BFDB0FC9406E
:10BDC00000000000E4CB1641E4CB16C1D4390020BA
:10BDD0000060EA48B42F0020324B1B78012B2AD197
:10BDE000314BB0F57A7F1B6803F4805307DA002BE0
:10BDF000DFED2E7A9FED2E0A07FE800A7047B0F520
:10BE0000FA6F1DDCFBB9B0F57A7F20D06FF47A733E
:10BE100040F2CF721844274B02FB00F0A3FB002333
:10BE2000C01A03EB50035B0A30339BB200EE103AAA
:10BE3000B8EE400A704707EE900AB8EE670A7047FE
:10BE40009FED1D0A704740F2DC53984202D19FEDEE
:10BE5000170A704740F2DB53984211D9A0F2DD5027
:10BE600040F2E73340F2F31203FB00F393FBF2F3EB
:10BE700003F583639BB200EE103AB8EE400A7047B8
:10BE8000A0F57A70A3F6C21340F2F31203FB00F39D
:10BE900093FBF2F303F217439BB200EE103AB8EEB5
:10BEA000400A704768570120D0560120000000006A
:10BEB00000E08244410A680600E0FF440146014870
:10BEC00030F0CAB844440120BC4BBD4A1B88BD4970
:10BED000528AB1F906102DE9F04FDC058BB040F124
:10BEE0003F81B94BD3ED006A93ED017AFDEEE66A2E
:10BEF000D3ED027ABDEEC77AFDEEE77A16EE903A00
:10BF0000ADF80C3017EE103AADF80E3017EE903A4F
:10BF1000ADF81030AD4D8C1A4FF47A73AC48B5F9CA
:10BF20000210B5F9005001F5E161ADF81A4005F5D0
:10BF3000E165A84C03FB01F19FEDA77A03FB05F334
:10BF4000D4ED007A80FB0165DFF8AC9280FB034002
:10BF5000CC17294477EEC77A1844DB17C4EBE121EC
:10BF6000984CC3EBE023FDEEE77A2046A588A3F5C5
:10BF7000FA73A1F5FA71AD1A2788ADF8263017EEDD
:10BF800090CA904BBF1A668840892489B61AADF8CA
:10BF90002410801A9989A41ADB89891ADFF85C8237
:10BFA0009A1AADF81850002399F8F452ADF812C05F
:10BFB000ADF81470ADF81660ADF81C40ADF81E0079
:10BFC000ADF82010ADF82220C8E90033C8E90233EB
:10BFD000002D00F0918009F55F7709F53E7407EBBD
:10BFE0004503CDE9007336E0B3463E80014494F941
:10BFF0000260012709EB81010BFB06FB07FA05F53F
:10C00000D1F89C637549354281FB0B714FEAEB7B9C
:10C01000CBEB611B0CBF01214FF0FF319B450DDBCA
:10C0200002FB0AF26D4B83FB0253D217C2EB631380
:10C03000A3EB0E031BB25B45A8BF5B4638F810E0CC
:10C0400003FB01E328F81030009A0734019B023209
:10C050009342009250D0A07900283AD120780AAAC1
:10C060006578410094F9043002EB45025B4F01EB27
:10C07000000E94F803C032F91C6C09EB8E0E94F993
:10C0800005A0BEF8A223BEF8A0E3A2EB0E0292B276
:10C0900002FB03F34FEA520E87FB037BDB17009F83
:10C0A000C3EB6B13A3EB0E031BB2BCF1000F9BD0D1
:10C0B000B7F900B0B34515DADC44DC4503DB66456F
:10C0C000A8BF6646B3460FFA8BFB009EA6F800B0E9
:10C0D0008CE70F30C0B2FFF7F1FE0028BED1009B05
:10C0E0001880B1E782DDABEB0C0CB4452FDA36B229
:10C0F000009FB3463E8079E7394B3A491E7801F1FB
:10C1000060053948354C09E0964216D92D4F0C315F
:10C1100037F91220A9421344038015D030F8027F6A
:10C1200091F90A30CA7A13FB07F3FF2A84FB03C78D
:10C130004FEAE373C3EB6713E6D1B1F908200C3182
:10C140001344A9420380E9D10BB0BDE8F08FDC4570
:10C150006646009FA8BF5E4636B2B3463E8045E7BE
:10C16000224B9FED236AD3ED0E7AD3ED046A93ED53
:10C17000097A67EE867A66EE866A1E4B27EE067AA5
:10C18000FDEEE77A1868FDEEE66ABDEEC77AC004F8
:10C1900017EE903A16EE904A1BB2ADF80C4017EE2F
:10C1A000104AADF81030ADF80E407FF5B3AE9142B5
:10C1B000BFF6B0AE5B42ADF81030ABE65C58012084
:10C1C00078560120E4360120F43501206058012022
:10C1D000C5B3A291402100200080BB441F85EB51D4
:10C1E0002842012034150120324A0120584F0020F6
:10C1F0003333333FD056012098110120344A0120B7
:10C200002DE9F84F414B1B7883B3414A116809B1BE
:10C2100000200860012B29D0916909B10020086035
:10C22000022B23D0116B09B100200860032B1DD015
:10C23000916C09B100200860042B17D0116E09B170
:10C2400000200860052B11D0916F09B10020086013
:10C25000062B0BD0D2F8901009B100200860072BF4
:10C2600004D0D2F8A8300BB100221A6016F09CF965
:10C27000284C4FF0100ADFF8A8804FF47A77DFF8E7
:10C28000A4E0254D40F2DB5CDFF89C90234EDEF805
:10C290000430C3F30803CBB9EFF31183B3B92368B8
:10C2A000A96822689342FAD132689142F7D8D8F847
:10C2B000002007FB02FBABEB0101B1FBF2F107FB36
:10C2C00003131B1A6345E2D9BDE8F88FEFF3118120
:10C2D0008AF31288D5F808B02B68DB0304D5012354
:10C2E000C9F80030D5F808B02368C9B2D9F80020E1
:10C2F00081F31188D8F80010134407FB01F2A2EB78
:10C300000B02B2FBF1F207FB0323DAE74C450020F6
:10C3100024440020804D012010E000E0884D0120E1
:10C32000844D012000ED00E07C4D01202DE9F04F0F
:10C330006C4E83B06C4B3078D3ED0D7A38B3FDEE94
:10C34000E77A012817EE903A1BB207EE903A674B56
:10C35000F8EEE77AC3ED007A19D00228C3ED017A2E
:10C3600015D00328C3ED027A11D00428C3ED037A57
:10C370000DD00528C3ED047A09D00628C3ED057A4F
:10C3800005D00728C3ED067A18BFC3ED077A584BCE
:10C390001B78002B40F0918032235648DFF86CE187
:10C3A0004FF01009DFF868C1534CDFF86881534E35
:10C3B0000193DCF80430C3F30803002B5ED1EFF3E4
:10C3C0001183002B5AD10568A26803689D42FAD1F7
:10C3D00033689A42F7D8DEF800704FF47A7101FBA7
:10C3E00007F39B1AB3FBF7F301FB05354FF47A779C
:10C3F0004FF0010ADCF80430C3F30803FBB9EFF394
:10C400001183E3B90368A16802689342FAD13268E4
:10C410009142F7D8DEF8002007FB02FBABEB0101ED
:10C42000B1FBF2F107FB03135B1BB3F57A7FE1D39A
:10C43000019B013B0193BCD103B0BDE8F08FEFF34A
:10C44000118189F31288D4F808B02368DB0303D57F
:10C45000C8F800A0D4F808B00368C9B2D8F8002022
:10C4600081F31188DEF80010134407FB01F2A2EB00
:10C470000B02B2FBF1F207FB0323D5E7EFF31183C5
:10C4800089F31288A1682268D20303D50122C8F873
:10C490000020A1680568DBB2D8F800A083F31188FA
:10C4A0004FF47A72DEF80070554402FB07F35B1A12
:10C4B000B3FBF7F302FB053598E7114B1B68984770
:10C4C000307858B1094D00240E4FE0B23B68B5EC0E
:10C4D000010A0134984730788442F6DB0A4B1B6826
:10C4E000984759E74C4500201C00002040210020BF
:10C4F000E6580120804D012010E000E0884D012029
:10C50000A44F0020984F0020A04F0020844D012010
:10C5100000ED00E07C4D0120094A0A4B526BC3F844
:10C520003821C3F83C21C3F84021C3F84421C3F8A3
:10C530004821C3F84C21C3F85021C3F85421704757
:10C540001C000020981101202DE9F04FD94C002249
:10C55000DFF894B383B094F868338BF80020A3F12C
:10C560001702022A00F24C81D34D231DD5ED007A2B
:10C570000093F5EE407AF1EE10FA00F03081D5ED3F
:10C58000047A0126F5EE407A8BF80060009EF1EE09
:10C5900010FA95E80F0086E80F0000F02081D5ED35
:10C5A000087A05F1100304F1140C0226F5EE407A26
:10C5B0008BF80060F1EE10FA0FCB8CE80F0000F062
:10C5C0001081D5ED0C7A05F1200304F124064FF01B
:10C5D000030EF5EE407A8BF800E0F1EE10FA0FCB87
:10C5E00086E80F0000F0FF80D5ED107A05F13003EA
:10C5F00004F1340E4FF00408F5EE407A8BF8008019
:10C60000F1EE10FA0FCB8EE80F0000F0EE80D5EDC2
:10C61000147A05F1400304F144084FF00509F5EEE2
:10C62000407A8BF80090F1EE10FA0FCB88E80F00FB
:10C6300000F0DD80D5ED187A05F1500304F15409BE
:10C640004FF0060AF5EE407A8BF800A0F1EE10FAF2
:10C650000FCB89E80F0000F0CC80D5ED1C7A05F1F6
:10C66000600304F164074FF0070AF5EE407A019782
:10C670008BF800A0F1EE10FA0FCB87E80F0000F066
:10C68000BB8005F1700304F174054FF0080A0FCB6D
:10C6900085E80F00009B8BF800A0DFF850B29FEDFB
:10C6A000877A0FCB8BE80F00D4ED237AF4EEC77AAC
:10C6B000F1EE10FA03D584ED237A84ED217A804FD0
:10C6C0004FF0000B9CE80F0087E80F00D4ED277AAD
:10C6D000F5EEC07AF1EE10FA03D5C4F89CB0C4F8B8
:10C6E00094B0784F4FF0000C96E80F0087E80F00E9
:10C6F000D4ED2B7AF5EEC07AF1EE10FA03D5C4F83A
:10C70000ACC0C4F8A4C0704E00279EE80F0086E8B5
:10C710000F00D4ED2F7AF5EEC07AF1EE10FA03D5C2
:10C72000C4F8BC70C4F8B470684E002798E80F00D5
:10C7300086E80F00D4ED337AF5EEC07AF1EE10FA08
:10C7400003D5C4F8CC70C4F8C470614E002799E8D2
:10C750000F0086E80F00D4ED377AF5EEC07AF1EEDF
:10C7600010FA03D5C4F8DC70C4F8D470019B00271C
:10C77000584E0FCB86E80F00D4ED3B7AF5EEC07A29
:10C78000F1EE10FA03D5C4F8EC70C4F8E470524E20
:10C79000002795E80F0086E80F00D4ED3F7AF5EE0C
:10C7A000C07AF1EE10FA03D5C4F8FC70C4F8F47046
:10C7B0004A4B5B6BC4F83831C4F83C31C4F84031A3
:10C7C000C4F84431C4F84831C4F84C31C4F850318D
:10C7D000C4F8543103B0BDE8F08F231D009304F179
:10C7E000140C04F1240604F1340E04F1440804F19D
:10C7F000540904F16403019304F17405009B4CE7B0
:10C80000374A12F8336002EBC303082E8BF800603E
:10C810005D686DD908238BF80030002DDDD0221D16
:10C8200005F110069B4604F1140C0092009F95E858
:10C830000F0087E80F0096E80F008CE80F0005F165
:10C840002003284EBBF1030F0FCB86E80F0077D0F3
:10C8500005F1300306F1100EBBF1040F0FCB8EE88B
:10C860000F007DD005F1400306F12008BBF1050F54
:10C870000FCB88E80F0067D005F1500306F13009AF
:10C88000BBF1060F0FCB89E80F006CD005F16003F8
:10C8900006F14007BBF1080F01970FCB87E80F00A7
:10C8A00068D105F1700306F150050FCB85E80F0044
:10C8B000009BF2E698110120E856012000000000DC
:10C8C0002C1201203C1201204C1201205C1201208C
:10C8D0006C1201207C1201208C1201201C0000200F
:10C8E00064D80408BC1101204C4500201C12012012
:10C8F000002D3FF472AF231DB3460093002E3FF48A
:10C900006EAF009F012E95E80F0087E80F0024D03E
:10C9100005F1100304F1140C022E0FCB8CE80F006C
:10C920008DD104F1640304F1240604F1340E04F102
:10C930004408019304F1540904F174053B46ACE644
:10C9400006F1100E06F1200806F1400306F1300949
:10C9500006F150050193009B9FE604F1140CE0E7FB
:10C9600006F12008F0E706F1400306F150050193B7
:10C97000009B92E606F15005009B8EE62C4B187842
:10C9800010F0010050D12B4B1B78002B4ED02A4ABF
:10C990002A49D2ED4E7A91ED0D7AF4EE477AF1EE16
:10C9A00010FA41D1012B42D092ED4F7AB4EE677A62
:10C9B000F1EE10FA38D1022B39D092ED507AF4EE24
:10C9C000477AF1EE10FA2FD1032B30D092ED517A45
:10C9D000F4EE477AF1EE10FA26D1042B26D092ED30
:10C9E000527AF4EE477AF1EE10FA1DD1052B1DD0E4
:10C9F00092ED537AF4EE477AF1EE10FA14D1062B49
:10CA000014D092ED547AF4EE477AF1EE10FA0BD18D
:10CA1000072B0BD092ED557AF4EE477AF1EE10FA2F
:10CA200014BF01200020704701207047002070478C
:10CA3000673501204C450020981101201C00002082
:10CA40002DE9F04F7B4D91B007462B78052B08D090
:10CA5000794B1C7814B9794EB378BBB911B0BDE8E5
:10CA6000F08F15F0A1FD744B04461B7853B12B7861
:10CA7000052BF3D115F098FD714B001BD88011B038
:10CA8000BDE8F08F6D4EB378002BF0D0DFF8DC817D
:10CA900098F80020013A0A2A23D8DFE812F079003A
:10CAA0000A02B7019701F0017A013200ED00A800F7
:10CAB00092005D0135F02CFF074680B1DFF8B091A0
:10CAC000D9F80030984200F03E86D9F8DC309F4219
:10CAD00000F02F86D9F8B8319F4200F03D8629F04A
:10CAE0008FFA3379012B24D0022BC0D198F8003073
:10CAF000012BBCD1534B1B78002BB8D129F0BCFBC8
:10CB0000B5E71FF0CFFD002205204F4B02921146E2
:10CB10000192A3F108020090532029F0A3F9002804
:10CB2000DFD14A4A0823106088F800303379012B9E
:10CB30009DD1DFF84091464B1B78DB0732D5454B42
:10CB4000D9F80020D3F8081498F800309142CFD8D3
:10CB5000012B8CD03B4E3278002A88D00B2B0DD87D
:10CB6000012240F603019A4012EA01070DD112F4A6
:10CB7000C06F03D0093B012B40F20086D9F800209A
:10CB80000B21324B88F800105A60002333706EE797
:10CB90002F4B1B78D8078DD43379012B40F0F580CB
:10CBA000DFF8D090FFF7EAFE0028C8D0D9F80030AF
:10CBB00041F2883227491A4498F80030C1F8082415
:10CBC00096E7254B1B78002B00F091851320FFF78B
:10CBD00075F9002840F08B851A4B1B78002B40F02C
:10CBE0008685092388F8003029F006F979E71320B3
:10CBF000FFF764F90028F7D0184B1B88002BF3D1FE
:10CC0000174B4520D3F800901FF090FD0E201FF029
:10CC10008DFD484628F0CCFF384628F0C9FF114A60
:10CC2000114B0A211268384688F800101A602BF060
:10CC30000BFCD9E776580120E0350120CC350120E6
:10CC4000785801201D4601203C81040870440120D1
:10CC500067350120981101200F460120644401200E
:10CC60006044012054440120504401205E2A0120E8
:10CC7000E44F0120804D01201FF014FDA84B93EDDF
:10CC8000000A39F0F5FDA74B814693ED000A39F013
:10CC9000EFFD824640201FF0E7FC00287FF421AF23
:10CCA000A14FA2493B684A78522B00F22585DFE864
:10CCB00013F04E0243023C022B0225021D02150214
:10CCC00056034F03480341035C033A033203260330
:10CCD0001F038A0283027C02740268025E0254020D
:10CCE00013050105EF04DD04CB04BB044B043B0436
:10CCF0002B0422041904110408040004F803F003AF
:10CD0000E703DE03D503CC03C403BC03B303A303CF
:10CD10009B0393038B0383037B0373036C03650300
:10CD2000EA01E301DC01D401CC01B901B201AB019C
:10CD3000A4019C0195018E01870180017901720196
:10CD40006B0164015D0131012A0122011A010E010A
:10CD50000D020302F901F101734ADFF808925268EB
:10CD6000D9F80010C8328A4205D31FF0BDFC002854
:10CD70003FF4B7AEB378032B00F0CC8401223379B3
:10CD8000934288F800203FF4D6AE022B7FF46FAEBA
:10CD9000B0E61FF087FC664A07230021A2F10C00D1
:10CDA00002920093A2F108030190143A472029F05F
:10CDB00059F800287FF495AE5B4B00204FF0FF310F
:10CDC0000722C3E9000188F80020AFE61FF06AFCE3
:10CDD000584A2C235021A2F10C0002920093A2F198
:10CDE0000A030190163A492029F03CF800287FF404
:10CDF00078AE514B1B681906DED54B4B4FF0FF3117
:10CE00000522C3E9000188F800208FE6464F1FF095
:10CE100049FCDFF850917B68D9F8002064339342D5
:10CE2000BFF45FAE40201FF01FFC00287FF459AE16
:10CE30003B684FF0400ADFF83091DFF804B10FE0B3
:10CE40001FF074FCDBF800203B68BAF1010A02F124
:10CE5000FF3203F10103CBF800203B6000F0868431
:10CE60004B4493F860311846002BE9D100214FF074
:10CE7000FF320423C7E9001288F8003056E61FF09D
:10CE800011FC002202202D4B029211460192A3F1C7
:10CE900008020090482028F0E5FF00287FF421AE2A
:10CEA000214B4FF0FF310622C3E9000188F8002032
:10CEB0003CE6DFF8B09000231B4A0321D9F80000BC
:10CEC00088F80010C2E900301D4A13602EE61D4AA2
:10CED0001D49138D1D4892F8262028F01BFF3B6842
:10CEE00001333B60FDE5174B194993F82A20194897
:10CEF00028F010FFF3E7134B154993F82520164847
:10CF000028F008FFEBE70C4B11491A68134828F08A
:10CF100001FFE4E78A7812480D4928F0FBFEDEE7BE
:10CF20003C21002060210020704401208835012030
:10CF3000F4800408D67E0408D0560120D880040866
:10CF4000D82F0120785601201CE9040824E90408A0
:10CF500020E9040804E90408F0E80408E4E8040807
:10CF6000D8E80408804D0120107D04089D4B9E499F
:10CF70001A8A9E4828F0CEFEB1E79A4B9A491A8841
:10CF80009B4828F0C7FEAAE7964B97499A7899489C
:10CF900028F0C0FEA3E7934B93491A79964828F0EE
:10CFA000B9FE9CE7954B90491A7A954828F0B2FE55
:10CFB00095E7924B8C491A7F924828F0ABFE8EE79A
:10CFC0008E4B89495A7E904828F0A4FE87E78B4B08
:10CFD00085499A7E8D4828F09DFE80E7874B8249DF
:10CFE0001A7E8B4828F096FE79E78A4B7E4993F8A3
:10CFF0000424894828F08EFE71E7884B7A49DA7854
:10D00000874828F087FE6AE7864B77495A79864831
:10D0100028F080FE63E7854B73499A78844828F0AE
:10D0200079FE5CE7814B9FED837A1B886E4907EEA2
:10D03000903A8148F8EEE77A67EE877AFDEEE77A74
:10D0400017EE902A28F066FE49E77C4A7C49138A4D
:10D050007C48928928F05EFE41E7784A7849D38976
:10D060007948528928F056FE39E7744B5E491A898F
:10D07000764828F04FFE32E7704B5B499A7D744842
:10D0800028F048FE2BE76D4B5749DA88714828F0A5
:10D0900041FE24E7704B5449D3F898206F4828F09C
:10D0A00039FE1CE76C4A6E49B2F896306D48B2F80A
:10D0B000942028F02FFE12E7504A694992F82C304C
:10D0C000694892F82B2028F025FE08E74B4B46498B
:10D0D00093F82D20654828F01DFE00E7644B424977
:10D0E000B3F90020634828F015FEF8E6624B3E498C
:10D0F000B3F90020614828F00DFEF0E6604A61496E
:10D10000614828F007FEEAE605A82FF003FB5F4B15
:10D1100005A908A8B3F9002000232FF057FB08AA9F
:10D1200058495B4828F0F6FDD9E65A4B5A4A5B4904
:10D130005B4828F0EFFDD2E65A4A5B4B5B495C48FE
:10D14000CDE900325B4B5C4A28F0E4FDC7E65B4A60
:10D150004C495B4828F0DEFDC1E65A481A232249B3
:10D1600003FB02025848127B28F0D4FDB7E655486D
:10D170001A231D4903FB02025448527828F0CAFDC5
:10D18000ADE61A23DFF83CC1174903FB02F2504811
:10D190001CF8022028F0BEFDA1E61E4B124993F8B0
:10D1A00074234C4828F0B6FD99E6244B0E495A7872
:10D1B000494828F0AFFD92E6484B0B491A684848A9
:10D1C00028F0A8FD8BE6474B9B7A012B7FF487AEB6
:10D1D000454A1B49B2F900304448B2F9022028F010
:10D1E00099FD7CE6CC58012020E90408C4E8040835
:10D1F000B4E80408A0E804088CE804087856012084
:10D2000078E804085CE8040840E8040824E8040816
:10D2100010E8040898110120F8E704087C4C01206C
:10D22000E8E70408C03E0120D8E704086858012058
:10D23000C8E704080000C842BCE704082829012008
:10D24000B8E40408A8E7040898E7040884E7040899
:10D2500070E7040860E70408F04D002090E9040836
:10D260001CE9040874E9040858E904083CE90408C6
:10D270006C44012078E404086A4401206CE404084A
:10D28000BC3D0120B8E3040860E404087C2E0120C2
:10D290004CE404081CE4040828E4040834E404080A
:10D2A0003CE4040804E4040810E40408E0E304088F
:10D2B000F0E30408CCE30408D4E30408ACE3040876
:10D2C000BCE304089C29012058E504084CE5040847
:10D2D00044E5040830E5040820E50408444F002034
:10D2E00014E50408043601201427012004E504088D
:10D2F0009D4B9E491A889E4828F00CFDEFE59D48FD
:10D300009D49B0F800C0838842889C48CDF800C091
:10D3100028F000FDE3E59A4B1B68DA0400F13C823B
:10D320000F233B60DBE5974B90499A8B964828F09A
:10D33000F1FCD4E54FF07E529449954828F0EAFC80
:10D34000CDE5944B94499A8A944828F0E3FCC6E5CD
:10D35000904B91495A8A924828F0DCFCBFE532880C
:10D360008D49904828F0D6FCB9E51FFA8AF38E491A
:10D370001FFA89F28D4828F0CDFCB0E58C4B864928
:10D380005A7D8C4828F0C6FCA9E5894B82499A78D9
:10D39000894828F0BFFCA2E5884B7F4993F8FD231C
:10D3A000874828F0B7FC9AE5844B7B4993F8FC2327
:10D3B000844828F0AFFC92E5834B77491B6883488B
:10D3C0005A8D28F0A7FC8AE57F4B73491B6880487B
:10D3D0001A8D28F09FFC82E57B4B6F491B687D48C6
:10D3E0001A8F28F097FC7AE5774B6B491B687A48CF
:10D3F000DA8E28F08FFC72E5734B7849D3F800C0C1
:10D400007748BCF81230BCF80C20BCF818C0CDF836
:10D4100000C028F07FFC62E56B4B5F491B687148D8
:10D4200093F8472028F076FC59E5674B5A491B686A
:10D430006D489A8E28F06EFC51E5634B56491B6887
:10D440006A485A8E28F066FC49E55F4B52491B68D2
:10D45000674893F8302028F05DFC40E55A4B4E4970
:10D460001B68644893F82C2028F054FC37E5564B91
:10D4700049491B68604893F8462028F04BFC2EE58C
:10D48000514B45491B685D4893F8272028F042FC22
:10D4900025E54D4B40491B685948DA8828F03AFC8D
:10D4A0001DE5494B3C491B6856489A8828F032FCD8
:10D4B00015E5454B38491B6853481A8828F02AFC63
:10D4C0000DE5414B34491B685048B3F84C2028F017
:10D4D00021FC04E53C4B30491B684D485A8828F034
:10D4E00019FCFCE4384B2C491B684A4893F8262069
:10D4F00028F010FCF3E4344B27491B68464893F8A6
:10D50000202028F007FCEAE42F4B3449D3F800C070
:10D5100042489CF81B309CF81A209CF81CC0CDF89F
:10D5200000C028F0F7FBDAE4274B2C49D3F800C001
:10D530003B489CF815309CF814209CF816C0CDF898
:10D5400000C028F0E7FBCAE41F4B2449D3F800C011
:10D5500034489CF80F309CF80E209CF810C0CDF891
:10D5600000C028F0D7FBBAE408460120D4470508DC
:10D57000FCE4040804360120E0E40408ECE40408B8
:10D580002C440120FC200020CCE40408A4E404087E
:10D59000ACE40408CC58012020E9040898E404080D
:10D5A0008CE4040884E40408B8E40408C0E4040833
:10D5B000282901204CE7040838E7040898110120C5
:10D5C00028E704082CE704088435012014E7040840
:10D5D00004E70408F8E60408E8E6040874E504082B
:10D5E000D4E60408BCE60408A8E6040890E60408AB
:10D5F0007CE6040868E6040858E6040848E60408DF
:10D6000034E6040824E6040814E6040800E60408E6
:10D61000ECE50408D8E50408D0E50408C4E50408EE
:10D62000BCE50408B0E504085F4B6049D3F800C0CE
:10D630005F489CF809309CF808209CF80AC0CDF897
:10D6400000C028F067FB4AE45A4B4FF01A0C5749C8
:10D650000CFB023C5848BCF81430BCF81220BCF853
:10D6600016C0CDF800C028F055FB38E4514B4FF000
:10D670001A0C4E490CFB023C50489CF80A309CF8AE
:10D6800009209CF80BC0CDF800C028F043FB26E42D
:10D69000484B4FF01A0C45490CFB023C48489CF89B
:10D6A00007309CF806209CF808C0CDF800C028F090
:10D6B00031FB14E43F4B4FF01A0C3C490CFB023C8D
:10D6C00040489CF804309CF803209CF805C0CDF835
:10D6D00000C028F01FFB02E436481A233A4903FB36
:10D6E00002023A48D28928F015FBFFF7F8BB38460A
:10D6F0002AF0AAFEFFF778BA1EF0F6FF00283FF4E2
:10D70000F0A9334A0A21334B126888F800101A60D6
:10D71000FFF70CBA304F386808F08BFC2F4B002213
:10D720001B783A60022B7FF429AB0EF04FFBFFF71A
:10D7300025BB384608F07DFCDC22002128483AF061
:10D740007BFAFFF7C7B908F074FCDC2200214846D9
:10D750003AF072FAFFF7B9B9384608F06AFCDC22F1
:10D76000002120483AF068FAFFF7B9B94B4493F822
:10D770006031002B7FF4B5A9FFF778BB45201EF080
:10D78000D5FFFF201EF0D2FF17481EF0BBFF384622
:10D790001EF0CCFFFFF7F2B9144B15491A78154863
:10D7A00028F0B8FAFFF79BBB8435012074E5040824
:10D7B000A8E504089C2901209CE5040894E50408D8
:10D7C0008CE5040880E5040820E9040864E5040801
:10D7D0005444012050440120D435012079440120D3
:10D7E000C05001209C510120A8E904081027012005
:10D7F000D4470508D4E40408494B05EE900A9FED90
:10D80000497A1A799FED485A07EE902A1A88DFED77
:10D81000474AF8EEE77A06EE102A454AB8EEC66A9D
:10D820005B8867EE877A06EE903A26EE056A37EE59
:10D83000A47AF8EEE66A82ED016ABDEEC76A66EE8A
:10D84000856A16EE103AC2ED006A2033402B13D9D8
:10D850009FED387AF8EEE57A9FED376A374BC6EEE2
:10D86000276A03F5836203F21440C3F81C1480EDA9
:10D87000007AC2ED006A7047F4EEE47AF1EE10FA35
:10D880004BDD9FED2F6ADFED2F6AB4EEE67A77EE7F
:10D89000467AF1EE10FAB0EE677AF6DC9FED2A7A5E
:10D8A000F4EEC77AF1EE10FA34D59FED256ADFED7C
:10D8B000276AF4EEE67A37EE867AF1EE10FAF0EEA9
:10D8C000477AF6D4DFED197AB4EEE77AF1EE10FA82
:10D8D0001BDCDFED1F7AB4EEE77AF1EE10FA03D528
:10D8E000DFED197A37EEC77A27EE076A9FED195AEE
:10D8F000DFED196ADFED197AE6EE056A27EE065AC2
:10D90000E6EE267AA5EE277AA4E7DFED157A37EE64
:10D91000C77AE9E7B0EE677AD4E7F0EE477ABDE779
:10D920006835012035FA8E3C17B7D138DB0FC93F77
:10D93000A415012000000000C0C9FB489811012077
:10D94000DB0FC940E4CB1641DB0F49C0E4CB16C165
:10D95000DB0FC9BF92E741B99730083C15A82ABE32
:10D96000DB0F49403C4BF0EE002AF7EE004A3B4A01
:10D97000D3ED027A93ED044A67EEA73A93ED037A6A
:10D9800024EE046A93ED015A67EE076A73EEA35A18
:10D99000C3ED093A36EE063A83ED0E6A67EE873A32
:10D9A000C3ED0C6AF1EE655AF0EE431A25EE046AF7
:10D9B000C3ED0A3AB0EE652AE6EEA21A75EEC35A36
:10D9C00083ED086AA6EEE22A65EE276A67EE847A9E
:10D9D00033EEC63A36EE236AC3ED066AC3ED0B7A20
:10D9E00075EEA45AF0EE422A25EE072A27EE047AB5
:10D9F000C2ED045A25EE055A72EE273A83ED072A46
:10DA000037EE664A83ED0D7A77EEC27A83ED055ADA
:10DA100036EE877A33EE033A72EEA46A36EE066A81
:10DA200074EEE14A82ED013A73EEA33AC2ED086A60
:10DA300077EEA77A82ED036A34EE044AC2ED004A1B
:10DA400037EE077AC2ED023AC2ED067A82ED054A58
:10DA500082ED077A704700BF00000120E02D012011
:10DA60002DE9F84FB04BB1491C68A5072DED068B89
:10DA700002D591F83C203AB90023BDEC068B0B632C
:10DA80004B638B63BDE8F88FA94E14F02004D6F8E1
:10DA90002024C6F82004A0EB020B23D0DFF8E89284
:10DAA00099F8004014F0020400F09F84A14B9A7C86
:10DAB000042A40F225859A89B2F5FA7FC0F02085C4
:10DAC000DD89DFED9D7A07EE105A96F82444DFF8E1
:10DAD000BC82B8EEC71A21EE271A002C00F0268669
